{
  "address": "0x61c6059CCea663E7808079B71e9ce51D913a2F3f",
  "abi": [
    {
      "inputs": [
        {
          "internalType": "address",
          "name": "forwarder",
          "type": "address"
        }
      ],
      "stateMutability": "nonpayable",
      "type": "constructor"
    },
    {
      "inputs": [
        {
          "internalType": "address",
          "name": "tokenAddress",
          "type": "address"
        },
        {
          "internalType": "uint256",
          "name": "amount",
          "type": "uint256"
        }
      ],
      "name": "approveTransfer",
      "outputs": [
        {
          "internalType": "bool",
          "name": "result",
          "type": "bool"
        }
      ],
      "stateMutability": "nonpayable",
      "type": "function"
    },
    {
      "inputs": [
        {
          "internalType": "address",
          "name": "forwarder",
          "type": "address"
        }
      ],
      "name": "isTrustedForwarder",
      "outputs": [
        {
          "internalType": "bool",
          "name": "",
          "type": "bool"
        }
      ],
      "stateMutability": "view",
      "type": "function"
    },
    {
      "inputs": [
        {
          "internalType": "address",
          "name": "tokenAddress",
          "type": "address"
        },
        {
          "internalType": "uint256",
          "name": "amount",
          "type": "uint256"
        }
      ],
      "name": "mint",
      "outputs": [],
      "stateMutability": "nonpayable",
      "type": "function"
    },
    {
      "inputs": [
        {
          "internalType": "address",
          "name": "tokenAddress",
          "type": "address"
        },
        {
          "internalType": "address",
          "name": "holder",
          "type": "address"
        },
        {
          "internalType": "address",
          "name": "spender",
          "type": "address"
        },
        {
          "internalType": "uint256",
          "name": "nonce",
          "type": "uint256"
        },
        {
          "internalType": "uint256",
          "name": "expiry",
          "type": "uint256"
        },
        {
          "internalType": "bool",
          "name": "allowed",
          "type": "bool"
        },
        {
          "internalType": "uint8",
          "name": "v",
          "type": "uint8"
        },
        {
          "internalType": "bytes32",
          "name": "r",
          "type": "bytes32"
        },
        {
          "internalType": "bytes32",
          "name": "s",
          "type": "bytes32"
        }
      ],
      "name": "permit",
      "outputs": [],
      "stateMutability": "nonpayable",
      "type": "function"
    },
    {
      "inputs": [
        {
          "internalType": "address",
          "name": "tokenAddress",
          "type": "address"
        },
        {
          "internalType": "address",
          "name": "destinationAddress",
          "type": "address"
        },
        {
          "internalType": "uint256",
          "name": "amount",
          "type": "uint256"
        }
      ],
      "name": "transferToken",
      "outputs": [],
      "stateMutability": "nonpayable",
      "type": "function"
    },
    {
      "inputs": [],
      "name": "trustedForwarder",
      "outputs": [
        {
          "internalType": "address",
          "name": "",
          "type": "address"
        }
      ],
      "stateMutability": "view",
      "type": "function"
    },
    {
      "inputs": [],
      "name": "versionRecipient",
      "outputs": [
        {
          "internalType": "string",
          "name": "",
          "type": "string"
        }
      ],
      "stateMutability": "view",
      "type": "function"
    }
  ],
  "transactionHash": "0xdddab087c4f5ed05911bd28d33af04cc612d4bd914a812345d18b0f1587858c9",
  "args": [
    "0x019e3eF5a3031e5f349CD00dF6012cdC917b6e53"
  ],
  "solcInputHash": "193683eb5d8a294bebc88a896bf00289",
  "bytecode": "0x608060405234801561001057600080fd5b506040516105ac3803806105ac8339818101604052602081101561003357600080fd5b5051600080546001600160a01b039092166001600160a01b0319909216919091179055610547806100656000396000f3fe608060405234801561001057600080fd5b506004361061007d5760003560e01c80637da0a8771161005b5780637da0a87714610167578063d84be3111461018b578063f5537ede146101ec578063fa02c4b7146102225761007d565b806340c10f1914610082578063486ff0cd146100b0578063572b6c051461012d575b600080fd5b6100ae6004803603604081101561009857600080fd5b506001600160a01b03813516906020013561024e565b005b6100b86102ca565b6040805160208082528351818301528351919283929083019185019080838360005b838110156100f25781810151838201526020016100da565b50505050905090810190601f16801561011f5780820380516001836020036101000a031916815260200191505b509250505060405180910390f35b6101536004803603602081101561014357600080fd5b50356001600160a01b03166102ea565b604080519115158252519081900360200190f35b61016f6102fe565b604080516001600160a01b039092168252519081900360200190f35b6100ae60048036036101208110156101a257600080fd5b506001600160a01b03813581169160208101358216916040820135169060608101359060808101359060a081013515159060ff60c0820135169060e081013590610100013561030d565b6100ae6004803603606081101561020257600080fd5b506001600160a01b038135811691602081013590911690604001356103b2565b6101536004803603604081101561023857600080fd5b506001600160a01b038135169060200135610454565b816001600160a01b0381166394bf804d836102676104df565b6040518363ffffffff1660e01b815260040180838152602001826001600160a01b0316815260200192505050600060405180830381600087803b1580156102ad57600080fd5b505af11580156102c1573d6000803e3d6000fd5b50505050505050565b604080518082019091526005815264191719171960d91b60208201525b90565b6000546001600160a01b0390811691161490565b6000546001600160a01b031681565b604080516323f2ebc360e21b81526001600160a01b038a8116600483015289811660248301526044820189905260648201889052861515608483015260ff861660a483015260c4820185905260e4820184905291518b92831691638fcbaf0c9161010480830192600092919082900301818387803b15801561038e57600080fd5b505af11580156103a2573d6000803e3d6000fd5b5050505050505050505050505050565b826001600160a01b0381166323b872dd6103ca6104df565b85856040518463ffffffff1660e01b815260040180846001600160a01b03168152602001836001600160a01b031681526020018281526020019350505050602060405180830381600087803b15801561042257600080fd5b505af1158015610436573d6000803e3d6000fd5b505050506040513d602081101561044c57600080fd5b505050505050565b6040805163095ea7b360e01b8152306004820152602481018390529051600091849183916001600160a01b0384169163095ea7b39160448082019260209290919082900301818787803b1580156104aa57600080fd5b505af11580156104be573d6000803e3d6000fd5b505050506040513d60208110156104d457600080fd5b505195945050505050565b6000601436108015906104f657506104f6336102ea565b1561050a575060131936013560601c6102e7565b50336102e756fea26469706673582212203a5f6cbf6e9ad56ebea669e5a511698585caee7f7f12a157ba0cfb498eeaf84664736f6c63430007060033",
  "devdoc": {
    "kind": "dev",
    "methods": {},
    "version": 1
  },
  "userdoc": {
    "kind": "user",
    "methods": {
      "isTrustedForwarder(address)": {
        "notice": "return if the forwarder is trusted to forward relayed transactions to us. the forwarder is required to verify the sender's signature, and verify the call is not a replay."
      }
    },
    "version": 1
  },
  "storageLayout": {
    "storage": [
      {
        "astId": 7,
        "contract": "contracts/RelayReceipient.sol:RelayReceipient",
        "label": "trustedForwarder",
        "offset": 0,
        "slot": "0",
        "type": "t_address"
      }
    ],
    "types": {
      "t_address": {
        "encoding": "inplace",
        "label": "address",
        "numberOfBytes": "20"
      }
    }
  }
}