{
  "address": "0x61c6059CCea663E7808079B71e9ce51D913a2F3f",
  "abi": [
    {
      "inputs": [
        {
          "internalType": "address",
          "name": "forwarder",
          "type": "address"
        }
      ],
      "stateMutability": "nonpayable",
      "type": "constructor"
    },
    {
      "inputs": [
        {
          "internalType": "address",
          "name": "tokenAddress",
          "type": "address"
        },
        {
          "internalType": "uint256",
          "name": "amount",
          "type": "uint256"
        }
      ],
      "name": "approveTransfer",
      "outputs": [
        {
          "internalType": "bool",
          "name": "result",
          "type": "bool"
        }
      ],
      "stateMutability": "nonpayable",
      "type": "function"
    },
    {
      "inputs": [
        {
          "internalType": "address",
          "name": "forwarder",
          "type": "address"
        }
      ],
      "name": "isTrustedForwarder",
      "outputs": [
        {
          "internalType": "bool",
          "name": "",
          "type": "bool"
        }
      ],
      "stateMutability": "view",
      "type": "function"
    },
    {
      "inputs": [
        {
          "internalType": "address",
          "name": "tokenAddress",
          "type": "address"
        },
        {
          "internalType": "uint256",
          "name": "amount",
          "type": "uint256"
        }
      ],
      "name": "mintFreeCoin",
      "outputs": [],
      "stateMutability": "nonpayable",
      "type": "function"
    },
    {
      "inputs": [
        {
          "internalType": "address",
          "name": "tokenAddress",
          "type": "address"
        },
        {
          "internalType": "address",
          "name": "holder",
          "type": "address"
        },
        {
          "internalType": "address",
          "name": "spender",
          "type": "address"
        },
        {
          "internalType": "uint256",
          "name": "nonce",
          "type": "uint256"
        },
        {
          "internalType": "uint256",
          "name": "expiry",
          "type": "uint256"
        },
        {
          "internalType": "bool",
          "name": "allowed",
          "type": "bool"
        },
        {
          "internalType": "uint8",
          "name": "v",
          "type": "uint8"
        },
        {
          "internalType": "bytes32",
          "name": "r",
          "type": "bytes32"
        },
        {
          "internalType": "bytes32",
          "name": "s",
          "type": "bytes32"
        }
      ],
      "name": "permit",
      "outputs": [],
      "stateMutability": "nonpayable",
      "type": "function"
    },
    {
      "inputs": [
        {
          "internalType": "address",
          "name": "tokenAddress",
          "type": "address"
        },
        {
          "internalType": "address",
          "name": "destinationAddress",
          "type": "address"
        },
        {
          "internalType": "uint256",
          "name": "amount",
          "type": "uint256"
        }
      ],
      "name": "transferToken",
      "outputs": [],
      "stateMutability": "nonpayable",
      "type": "function"
    },
    {
      "inputs": [],
      "name": "trustedForwarder",
      "outputs": [
        {
          "internalType": "address",
          "name": "",
          "type": "address"
        }
      ],
      "stateMutability": "view",
      "type": "function"
    },
    {
      "inputs": [],
      "name": "versionRecipient",
      "outputs": [
        {
          "internalType": "string",
          "name": "",
          "type": "string"
        }
      ],
      "stateMutability": "view",
      "type": "function"
    }
  ],
  "transactionHash": "0x8dcea358cf211e8510bcb0d6c479c8070dc4a99ed9343a687d85c6f9dc2d1e26",
  "args": [
    "0xeDb5e27Fa6353317C6166cbb07BFf79a95a97A83"
  ],
  "solcInputHash": "a223b3205a90d34ce075d9945044df6b",
  "bytecode": "0x608060405234801561001057600080fd5b506040516105ef3803806105ef8339818101604052602081101561003357600080fd5b5051600080546001600160a01b039092166001600160a01b031990921691909117905561058a806100656000396000f3fe608060405234801561001057600080fd5b506004361061007d5760003560e01c8063d84be3111161005b578063d84be3111461015d578063f5537ede146101c0578063fa02c4b7146101f6578063fa9f9041146102225761007d565b8063486ff0cd14610082578063572b6c05146100ff5780637da0a87714610139575b600080fd5b61008a61024e565b6040805160208082528351818301528351919283929083019185019080838360005b838110156100c45781810151838201526020016100ac565b50505050905090810190601f1680156100f15780820380516001836020036101000a031916815260200191505b509250505060405180910390f35b6101256004803603602081101561011557600080fd5b50356001600160a01b031661026e565b604080519115158252519081900360200190f35b610141610282565b604080516001600160a01b039092168252519081900360200190f35b6101be600480360361012081101561017457600080fd5b506001600160a01b03813581169160208101358216916040820135169060608101359060808101359060a081013515159060ff60c0820135169060e0810135906101000135610291565b005b6101be600480360360608110156101d657600080fd5b506001600160a01b03813581169160208101359091169060400135610336565b6101256004803603604081101561020c57600080fd5b506001600160a01b03813516906020013561041b565b6101be6004803603604081101561023857600080fd5b506001600160a01b0381351690602001356104a6565b604080518082019091526005815264191719171960d91b60208201525b90565b6000546001600160a01b0390811691161490565b6000546001600160a01b031681565b604080516323f2ebc360e21b81526001600160a01b038a8116600483015289811660248301526044820189905260648201889052861515608483015260ff861660a483015260c4820185905260e4820184905291518b92831691638fcbaf0c9161010480830192600092919082900301818387803b15801561031257600080fd5b505af1158015610326573d6000803e3d6000fd5b5050505050505050505050505050565b826001600160a01b0381166323b872dd61034e610522565b85856040518463ffffffff1660e01b815260040180846001600160a01b03168152602001836001600160a01b031681526020018281526020019350505050602060405180830381600087803b1580156103a657600080fd5b505af11580156103ba573d6000803e3d6000fd5b505050506040513d60208110156103d057600080fd5b5051610415576040805162461bcd60e51b815260206004820152600f60248201526e151c985b9cd9995c8819985a5b1959608a1b604482015290519081900360640190fd5b50505050565b6040805163095ea7b360e01b8152306004820152602481018390529051600091849183916001600160a01b0384169163095ea7b39160448082019260209290919082900301818787803b15801561047157600080fd5b505af1158015610485573d6000803e3d6000fd5b505050506040513d602081101561049b57600080fd5b505195945050505050565b816001600160a01b0381166394bf804d836104bf610522565b6040518363ffffffff1660e01b815260040180838152602001826001600160a01b0316815260200192505050600060405180830381600087803b15801561050557600080fd5b505af1158015610519573d6000803e3d6000fd5b50505050505050565b60006014361080159061053957506105393361026e565b1561054d575060131936013560601c61026b565b503361026b56fea2646970667358221220e07d73a76356194b30dd545dfca530ea50a84337884741892107869b60c3f08464736f6c63430007060033",
  "devdoc": {
    "kind": "dev",
    "methods": {},
    "version": 1
  },
  "userdoc": {
    "kind": "user",
    "methods": {
      "isTrustedForwarder(address)": {
        "notice": "return if the forwarder is trusted to forward relayed transactions to us. the forwarder is required to verify the sender's signature, and verify the call is not a replay."
      }
    },
    "version": 1
  },
  "storageLayout": {
    "storage": [
      {
        "astId": 7,
        "contract": "contracts/RelayRecipient.sol:RelayRecipient",
        "label": "trustedForwarder",
        "offset": 0,
        "slot": "0",
        "type": "t_address"
      }
    ],
    "types": {
      "t_address": {
        "encoding": "inplace",
        "label": "address",
        "numberOfBytes": "20"
      }
    }
  }
}