{
  "address": "0x61c6059CCea663E7808079B71e9ce51D913a2F3f",
  "abi": [
    {
      "inputs": [
        {
          "internalType": "address",
          "name": "forwarder",
          "type": "address"
        }
      ],
      "stateMutability": "nonpayable",
      "type": "constructor"
    },
    {
      "inputs": [
        {
          "internalType": "address",
          "name": "tokenAddress",
          "type": "address"
        },
        {
          "internalType": "uint256",
          "name": "value",
          "type": "uint256"
        }
      ],
      "name": "approveTransfer",
      "outputs": [
        {
          "internalType": "bool",
          "name": "result",
          "type": "bool"
        }
      ],
      "stateMutability": "nonpayable",
      "type": "function"
    },
    {
      "inputs": [
        {
          "internalType": "address",
          "name": "forwarder",
          "type": "address"
        }
      ],
      "name": "isTrustedForwarder",
      "outputs": [
        {
          "internalType": "bool",
          "name": "",
          "type": "bool"
        }
      ],
      "stateMutability": "view",
      "type": "function"
    },
    {
      "inputs": [
        {
          "internalType": "address",
          "name": "tokenAddress",
          "type": "address"
        },
        {
          "internalType": "uint256",
          "name": "value",
          "type": "uint256"
        }
      ],
      "name": "mintFreeCoin",
      "outputs": [],
      "stateMutability": "nonpayable",
      "type": "function"
    },
    {
      "inputs": [
        {
          "internalType": "address",
          "name": "tokenAddress",
          "type": "address"
        },
        {
          "internalType": "address",
          "name": "owner",
          "type": "address"
        },
        {
          "internalType": "address",
          "name": "spender",
          "type": "address"
        },
        {
          "internalType": "uint256",
          "name": "amount",
          "type": "uint256"
        },
        {
          "internalType": "uint256",
          "name": "deadline",
          "type": "uint256"
        },
        {
          "internalType": "uint256",
          "name": "nonce",
          "type": "uint256"
        },
        {
          "internalType": "bool",
          "name": "allowed",
          "type": "bool"
        },
        {
          "internalType": "uint8",
          "name": "v",
          "type": "uint8"
        },
        {
          "internalType": "bytes32",
          "name": "r",
          "type": "bytes32"
        },
        {
          "internalType": "bytes32",
          "name": "s",
          "type": "bytes32"
        }
      ],
      "name": "permit",
      "outputs": [],
      "stateMutability": "nonpayable",
      "type": "function"
    },
    {
      "inputs": [
        {
          "internalType": "address",
          "name": "tokenAddress",
          "type": "address"
        },
        {
          "internalType": "address",
          "name": "destinationAddress",
          "type": "address"
        },
        {
          "internalType": "uint256",
          "name": "value",
          "type": "uint256"
        }
      ],
      "name": "transferToken",
      "outputs": [],
      "stateMutability": "nonpayable",
      "type": "function"
    },
    {
      "inputs": [],
      "name": "trustedForwarder",
      "outputs": [
        {
          "internalType": "address",
          "name": "",
          "type": "address"
        }
      ],
      "stateMutability": "view",
      "type": "function"
    },
    {
      "inputs": [],
      "name": "versionRecipient",
      "outputs": [
        {
          "internalType": "string",
          "name": "",
          "type": "string"
        }
      ],
      "stateMutability": "view",
      "type": "function"
    }
  ],
  "transactionHash": "0x4ad8a3e0a4e79f7bad3c36f4b08d9a11b01baf3ebca2f5eb6dd3638baa4cd708",
  "args": [
    "0xeDb5e27Fa6353317C6166cbb07BFf79a95a97A83"
  ],
  "solcInputHash": "5a32e6d8b696d48a6b6abf772081399f",
  "bytecode": "0x608060405234801561001057600080fd5b506040516105ee3803806105ee8339818101604052602081101561003357600080fd5b5051600080546001600160a01b039092166001600160a01b0319909216919091179055610589806100656000396000f3fe608060405234801561001057600080fd5b506004361061007d5760003560e01c8063a9ead7c01161005b578063a9ead7c01461015d578063f5537ede146101c7578063fa02c4b7146101fd578063fa9f9041146102295761007d565b8063486ff0cd14610082578063572b6c05146100ff5780637da0a87714610139575b600080fd5b61008a610255565b6040805160208082528351818301528351919283929083019185019080838360005b838110156100c45781810151838201526020016100ac565b50505050905090810190601f1680156100f15780820380516001836020036101000a031916815260200191505b509250505060405180910390f35b6101256004803603602081101561011557600080fd5b50356001600160a01b0316610275565b604080519115158252519081900360200190f35b610141610289565b604080516001600160a01b039092168252519081900360200190f35b6101c5600480360361014081101561017457600080fd5b506001600160a01b03813581169160208101358216916040820135169060608101359060808101359060a08101359060c081013515159060ff60e08201351690610100810135906101200135610298565b005b6101c5600480360360608110156101dd57600080fd5b506001600160a01b03813581169160208101359091169060400135610335565b6101256004803603604081101561021357600080fd5b506001600160a01b03813516906020013561041a565b6101c56004803603604081101561023f57600080fd5b506001600160a01b0381351690602001356104a5565b604080518082019091526005815264191719171960d91b60208201525b90565b6000546001600160a01b0390811691161490565b6000546001600160a01b031681565b6040805163d505accf60e01b81526001600160a01b038b811660048301528a81166024830152604482018a90526064820189905260ff8616608483015260a4820185905260c4820184905291518c9283169163d505accf9160e480830192600092919082900301818387803b15801561031057600080fd5b505af1158015610324573d6000803e3d6000fd5b505050505050505050505050505050565b826001600160a01b0381166323b872dd61034d610521565b85856040518463ffffffff1660e01b815260040180846001600160a01b03168152602001836001600160a01b031681526020018281526020019350505050602060405180830381600087803b1580156103a557600080fd5b505af11580156103b9573d6000803e3d6000fd5b505050506040513d60208110156103cf57600080fd5b5051610414576040805162461bcd60e51b815260206004820152600f60248201526e151c985b9cd9995c8819985a5b1959608a1b604482015290519081900360640190fd5b50505050565b6040805163095ea7b360e01b8152306004820152602481018390529051600091849183916001600160a01b0384169163095ea7b39160448082019260209290919082900301818787803b15801561047057600080fd5b505af1158015610484573d6000803e3d6000fd5b505050506040513d602081101561049a57600080fd5b505195945050505050565b816001600160a01b0381166340c10f196104bd610521565b846040518363ffffffff1660e01b815260040180836001600160a01b0316815260200182815260200192505050600060405180830381600087803b15801561050457600080fd5b505af1158015610518573d6000803e3d6000fd5b50505050505050565b600060143610801590610538575061053833610275565b1561054c575060131936013560601c610272565b503361027256fea2646970667358221220a05c482dfacedae5bc7aa4462534a491377aba31d45153e1dc483db434e6bfe564736f6c63430007060033",
  "devdoc": {
    "kind": "dev",
    "methods": {},
    "version": 1
  },
  "userdoc": {
    "kind": "user",
    "methods": {
      "isTrustedForwarder(address)": {
        "notice": "return if the forwarder is trusted to forward relayed transactions to us. the forwarder is required to verify the sender's signature, and verify the call is not a replay."
      }
    },
    "version": 1
  },
  "storageLayout": {
    "storage": [
      {
        "astId": 8085,
        "contract": "contracts/RelayRecipient.sol:RelayRecipient",
        "label": "trustedForwarder",
        "offset": 0,
        "slot": "0",
        "type": "t_address"
      }
    ],
    "types": {
      "t_address": {
        "encoding": "inplace",
        "label": "address",
        "numberOfBytes": "20"
      }
    }
  }
}