{
  "address": "0x995F11360f4c5b51CD0Cad05a983e8785219a4fF",
  "abi": [
    {
      "inputs": [
        {
          "internalType": "uint256",
          "name": "_rateMult",
          "type": "uint256"
        },
        {
          "internalType": "uint256",
          "name": "_rateDiv",
          "type": "uint256"
        }
      ],
      "stateMutability": "payable",
      "type": "constructor"
    },
    {
      "inputs": [
        {
          "internalType": "uint256",
          "name": "tokensSold",
          "type": "uint256"
        }
      ],
      "name": "getTokenToEthInputPrice",
      "outputs": [
        {
          "internalType": "uint256",
          "name": "out",
          "type": "uint256"
        }
      ],
      "stateMutability": "view",
      "type": "function"
    },
    {
      "inputs": [
        {
          "internalType": "uint256",
          "name": "ethBought",
          "type": "uint256"
        }
      ],
      "name": "getTokenToEthOutputPrice",
      "outputs": [
        {
          "internalType": "uint256",
          "name": "out",
          "type": "uint256"
        }
      ],
      "stateMutability": "view",
      "type": "function"
    },
    {
      "inputs": [],
      "name": "rateDiv",
      "outputs": [
        {
          "internalType": "uint256",
          "name": "",
          "type": "uint256"
        }
      ],
      "stateMutability": "view",
      "type": "function"
    },
    {
      "inputs": [],
      "name": "rateMult",
      "outputs": [
        {
          "internalType": "uint256",
          "name": "",
          "type": "uint256"
        }
      ],
      "stateMutability": "view",
      "type": "function"
    },
    {
      "inputs": [],
      "name": "token",
      "outputs": [
        {
          "internalType": "contract IERC20",
          "name": "",
          "type": "address"
        }
      ],
      "stateMutability": "view",
      "type": "function"
    },
    {
      "inputs": [],
      "name": "tokenAddress",
      "outputs": [
        {
          "internalType": "address",
          "name": "out",
          "type": "address"
        }
      ],
      "stateMutability": "view",
      "type": "function"
    },
    {
      "inputs": [
        {
          "internalType": "uint256",
          "name": "ethBought",
          "type": "uint256"
        },
        {
          "internalType": "uint256",
          "name": "maxTokens",
          "type": "uint256"
        },
        {
          "internalType": "uint256",
          "name": "deadline",
          "type": "uint256"
        }
      ],
      "name": "tokenToEthSwapOutput",
      "outputs": [
        {
          "internalType": "uint256",
          "name": "out",
          "type": "uint256"
        }
      ],
      "stateMutability": "nonpayable",
      "type": "function"
    },
    {
      "inputs": [
        {
          "internalType": "uint256",
          "name": "ethBought",
          "type": "uint256"
        },
        {
          "internalType": "uint256",
          "name": "maxTokens",
          "type": "uint256"
        },
        {
          "internalType": "uint256",
          "name": "deadline",
          "type": "uint256"
        },
        {
          "internalType": "address payable",
          "name": "recipient",
          "type": "address"
        }
      ],
      "name": "tokenToEthTransferOutput",
      "outputs": [
        {
          "internalType": "uint256",
          "name": "out",
          "type": "uint256"
        }
      ],
      "stateMutability": "nonpayable",
      "type": "function"
    },
    {
      "stateMutability": "payable",
      "type": "receive"
    }
  ],
  "transactionHash": "0xf4bf14ed45d27514c626a2d78885fc86cfb8e04bb8e4b833f7912928f57c48bc",
  "args": [
    1,
    1
  ],
  "solcInputHash": "5a32e6d8b696d48a6b6abf772081399f",
  "bytecode": "0x6080604052604051611cfa380380611cfa8339818101604052604081101561002657600080fd5b5080516020909101516040516103e89061003f90610138565b90815260405190819003602001906000f080158015610062573d6000803e3d6000fd5b50600080546001600160a01b0319166001600160a01b039290921691909117905560018290556002819055346100df576040805162461bcd60e51b815260206004820152601660248201527f6d7573742073706563696679206c697175696469747900000000000000000000604482015290519081900360640190fd5b600154158015906100f1575060025415155b610131576040805162461bcd60e51b815260206004820152600c60248201526b3130b21036bab63a163234bb60a11b604482015290519081900360640190fd5b5050610145565b611700806105fa83390190565b6104a6806101546000396000f3fe60806040526004361061007f5760003560e01c80639d76ea581161004e5780639d76ea581461013c578063aec036a11461016d578063d4e4841d14610182578063fc0c546a146101c757610086565b8063013efd8b1461008b57806314f38115146100d35780632640f62c146100e857806395b68fe71461011257610086565b3661008657005b600080fd5b34801561009757600080fd5b506100c1600480360360608110156100ae57600080fd5b50803590602081013590604001356101dc565b60408051918252519081900360200190f35b3480156100df57600080fd5b506100c16102f2565b3480156100f457600080fd5b506100c16004803603602081101561010b57600080fd5b50356102f8565b34801561011e57600080fd5b506100c16004803603602081101561013557600080fd5b5035610310565b34801561014857600080fd5b50610151610329565b604080516001600160a01b039092168252519081900360200190f35b34801561017957600080fd5b506100c1610338565b34801561018e57600080fd5b506100c1600480360360808110156101a557600080fd5b50803590602081013590604081013590606001356001600160a01b031661033e565b3480156101d357600080fd5b50610151610461565b6000806101e8856102f8565b9050844711610235576040805162461bcd60e51b81526020600482015260146024820152736e6f7420656e6f756768206c697175696469747960601b604482015290519081900360640190fd5b60008054604080516323b872dd60e01b81523360048201523060248201526044810185905290516001600160a01b03909216926323b872dd926064808401936020939083900390910190829087803b15801561029057600080fd5b505af11580156102a4573d6000803e3d6000fd5b505050506040513d60208110156102ba57600080fd5b5050604051339086156108fc029087906000818181858888f193505050501580156102e9573d6000803e3d6000fd5b50949350505050565b60015481565b600060025460015483028161030957fe5b0492915050565b60006001546002548161031f57fe5b0482029050919050565b6000546001600160a01b031690565b60025481565b600084471161038b576040805162461bcd60e51b81526020600482015260146024820152736e6f7420656e6f756768206c697175696469747960601b604482015290519081900360640190fd5b6000610396866102f8565b60008054604080516323b872dd60e01b81523360048201523060248201526044810185905290519394506001600160a01b03909116926323b872dd92606480840193602093929083900390910190829087803b1580156103f557600080fd5b505af1158015610409573d6000803e3d6000fd5b505050506040513d602081101561041f57600080fd5b50506040516001600160a01b0384169087156108fc029088906000818181858888f19350505050158015610457573d6000803e3d6000fd5b5095945050505050565b6000546001600160a01b03168156fea26469706673582212200a7b3bf37b3f4a0e1e0da363b528365eca1ebc11a3762ff8cc5c4e35fec4006864736f6c6343000706003360806040523480156200001157600080fd5b506040516200170038038062001700833981810160405260208110156200003757600080fd5b5051604080518082018252600a8152692a32b9ba102a37b5b2b760b11b60208281019182528351808501909452600380855262544f4b60e81b918501919091528251929392620000889290620003b0565b5080516200009e906004906020840190620003b0565b50506005805460ff1916601217905550620000b8620000cc565b50620000c533826200019c565b506200045c565b600080620000d9620002ab565b905060007f8b73c3c69bb8fe3d512ecc4cf759cc79239f7b179b0ffacaa9a75d522b39400f62000108620002af565b805160209182012060408051808201825260018152603160f81b90840152805180840194909452838101919091527fc89efdaa54c0f20c7adf612882df0950f5a951637e0307cdcb4c672f298b8bc66060840152608083018590523060a0808501919091528151808503909101815260c0909301815282519282019290922060009485526007909152922082905550905090565b6001600160a01b038216620001f8576040805162461bcd60e51b815260206004820152601f60248201527f45524332303a206d696e7420746f20746865207a65726f206164647265737300604482015290519081900360640190fd5b620002066000838362000349565b62000222816002546200034e60201b620008a91790919060201c565b6002556001600160a01b0382166000908152602081815260409091205462000255918390620008a96200034e821b17901c565b6001600160a01b0383166000818152602081815260408083209490945583518581529351929391927fddf252ad1be2c89b69c2b068fc378daa952ba7f163c4a11628f55a4df523b3ef9281900390910190a35050565b4690565b60038054604080516020601f60026000196101006001881615020190951694909404938401819004810282018101909252828152606093909290918301828280156200033f5780601f1062000313576101008083540402835291602001916200033f565b820191906000526020600020905b8154815290600101906020018083116200032157829003601f168201915b5050505050905090565b505050565b600082820183811015620003a9576040805162461bcd60e51b815260206004820152601b60248201527f536166654d6174683a206164646974696f6e206f766572666c6f770000000000604482015290519081900360640190fd5b9392505050565b828054600181600116156101000203166002900490600052602060002090601f016020900481019282620003e8576000855562000433565b82601f106200040357805160ff191683800117855562000433565b8280016001018555821562000433579182015b828111156200043357825182559160200191906001019062000416565b506200044192915062000445565b5090565b5b8082111562000441576000815560010162000446565b611294806200046c6000396000f3fe608060405234801561001057600080fd5b50600436106101005760003560e01c80637ecebe0011610097578063a457c2d711610066578063a457c2d714610327578063a9059cbb14610353578063d505accf1461037f578063dd62ed3e146103d057610100565b80637ecebe00146102b057806395d89b41146102d657806399740a18146102de5780639dc29fac146102fb57610100565b8063313ce567116100d3578063313ce56714610212578063395093511461023057806340c10f191461025c57806370a082311461028a57610100565b806306fdde0314610105578063095ea7b31461018257806318160ddd146101c257806323b872dd146101dc575b600080fd5b61010d6103fe565b6040805160208082528351818301528351919283929083019185019080838360005b8381101561014757818101518382015260200161012f565b50505050905090810190601f1680156101745780820380516001836020036101000a031916815260200191505b509250505060405180910390f35b6101ae6004803603604081101561019857600080fd5b506001600160a01b038135169060200135610495565b604080519115158252519081900360200190f35b6101ca6104b2565b60408051918252519081900360200190f35b6101ae600480360360608110156101f257600080fd5b506001600160a01b038135811691602081013590911690604001356104b8565b61021a61053f565b6040805160ff9092168252519081900360200190f35b6101ae6004803603604081101561024657600080fd5b506001600160a01b038135169060200135610548565b6102886004803603604081101561027257600080fd5b506001600160a01b038135169060200135610596565b005b6101ca600480360360208110156102a057600080fd5b50356001600160a01b03166105a4565b6101ca600480360360208110156102c657600080fd5b50356001600160a01b03166105bf565b61010d6105e6565b6101ca600480360360208110156102f457600080fd5b5035610647565b6102886004803603604081101561031157600080fd5b506001600160a01b038135169060200135610659565b6101ae6004803603604081101561033d57600080fd5b506001600160a01b038135169060200135610663565b6101ae6004803603604081101561036957600080fd5b506001600160a01b0381351690602001356106cb565b610288600480360360e081101561039557600080fd5b506001600160a01b03813581169160208101359091169060408101359060608101359060ff6080820135169060a08101359060c001356106df565b6101ca600480360360408110156103e657600080fd5b506001600160a01b038135811691602001351661087e565b60038054604080516020601f600260001961010060018816150201909516949094049384018190048102820181019092528281526060939092909183018282801561048a5780601f1061045f5761010080835404028352916020019161048a565b820191906000526020600020905b81548152906001019060200180831161046d57829003601f168201915b505050505090505b90565b60006104a96104a261090a565b848461090e565b50600192915050565b60025490565b60006104c58484846109fa565b610535846104d161090a565b610530856040518060600160405280602881526020016111a8602891396001600160a01b038a1660009081526001602052604081209061050f61090a565b6001600160a01b031681526020810191909152604001600020549190610b55565b61090e565b5060019392505050565b60055460ff1690565b60006104a961055561090a565b84610530856001600061056661090a565b6001600160a01b03908116825260208083019390935260409182016000908120918c1681529252902054906108a9565b6105a08282610bec565b5050565b6001600160a01b031660009081526020819052604090205490565b6001600160a01b03811660009081526006602052604081206105e090610cdc565b92915050565b60048054604080516020601f600260001961010060018816150201909516949094049384018190048102820181019092528281526060939092909183018282801561048a5780601f1061045f5761010080835404028352916020019161048a565b60076020526000908152604090205481565b6105a08282610ce0565b60006104a961067061090a565b846105308560405180606001604052806025815260200161123a602591396001600061069a61090a565b6001600160a01b03908116825260208083019390935260409182016000908120918d16815292529020549190610b55565b60006104a96106d861090a565b84846109fa565b83421115610734576040805162461bcd60e51b815260206004820152601d60248201527f45524332305065726d69743a206578706972656420646561646c696e65000000604482015290519081900360640190fd5b6001600160a01b0387166000908152600660205260408120819061075790610cdc565b90506040517f6e71edae12b1b97f4d1f60370fef10105fa2faae0126114a169c64845d6126c981528960208201528860408201528760608201528160808201528660a082015260c0812092505060006107ae610ddc565b60405161190160f01b815260028101829052602281018590526042902090915060006107dc82898989610e19565b90508b6001600160a01b0316816001600160a01b031614610844576040805162461bcd60e51b815260206004820152601e60248201527f45524332305065726d69743a20696e76616c6964207369676e61747572650000604482015290519081900360640190fd5b6001600160a01b038c16600090815260066020526040902061086590610f9b565b6108708c8c8c61090e565b505050505050505050505050565b6001600160a01b03918216600090815260016020908152604080832093909416825291909152205490565b600082820183811015610903576040805162461bcd60e51b815260206004820152601b60248201527f536166654d6174683a206164646974696f6e206f766572666c6f770000000000604482015290519081900360640190fd5b9392505050565b3390565b6001600160a01b0383166109535760405162461bcd60e51b81526004018080602001828103825260248152602001806112166024913960400191505060405180910390fd5b6001600160a01b0382166109985760405162461bcd60e51b815260040180806020018281038252602281526020018061111c6022913960400191505060405180910390fd5b6001600160a01b03808416600081815260016020908152604080832094871680845294825291829020859055815185815291517f8c5be1e5ebec7d5bd14f71427d1e84f3dd0314c0f7b2291e5b200ac8c7c3b9259281900390910190a3505050565b6001600160a01b038316610a3f5760405162461bcd60e51b81526004018080602001828103825260258152602001806111f16025913960400191505060405180910390fd5b6001600160a01b038216610a845760405162461bcd60e51b81526004018080602001828103825260238152602001806110d76023913960400191505060405180910390fd5b610a8f838383610fa4565b610acc8160405180606001604052806026815260200161113e602691396001600160a01b0386166000908152602081905260409020549190610b55565b6001600160a01b038085166000908152602081905260408082209390935590841681522054610afb90826108a9565b6001600160a01b038084166000818152602081815260409182902094909455805185815290519193928716927fddf252ad1be2c89b69c2b068fc378daa952ba7f163c4a11628f55a4df523b3ef92918290030190a3505050565b60008184841115610be45760405162461bcd60e51b81526004018080602001828103825283818151815260200191508051906020019080838360005b83811015610ba9578181015183820152602001610b91565b50505050905090810190601f168015610bd65780820380516001836020036101000a031916815260200191505b509250505060405180910390fd5b505050900390565b6001600160a01b038216610c47576040805162461bcd60e51b815260206004820152601f60248201527f45524332303a206d696e7420746f20746865207a65726f206164647265737300604482015290519081900360640190fd5b610c5360008383610fa4565b600254610c6090826108a9565b6002556001600160a01b038216600090815260208190526040902054610c8690826108a9565b6001600160a01b0383166000818152602081815260408083209490945583518581529351929391927fddf252ad1be2c89b69c2b068fc378daa952ba7f163c4a11628f55a4df523b3ef9281900390910190a35050565b5490565b6001600160a01b038216610d255760405162461bcd60e51b81526004018080602001828103825260218152602001806111d06021913960400191505060405180910390fd5b610d3182600083610fa4565b610d6e816040518060600160405280602281526020016110fa602291396001600160a01b0385166000908152602081905260409020549190610b55565b6001600160a01b038316600090815260208190526040902055600254610d949082610fa9565b6002556040805182815290516000916001600160a01b038516917fddf252ad1be2c89b69c2b068fc378daa952ba7f163c4a11628f55a4df523b3ef9181900360200190a35050565b60008060076000610deb611006565b815260208101919091526040016000205490508015610e0b579050610492565b610e1361100a565b91505090565b60007f7fffffffffffffffffffffffffffffff5d576e7357a4501ddfe92f46681b20a0821115610e7a5760405162461bcd60e51b81526004018080602001828103825260228152602001806111646022913960400191505060405180910390fd5b8360ff16601b14158015610e9257508360ff16601c14155b15610ece5760405162461bcd60e51b81526004018080602001828103825260228152602001806111866022913960400191505060405180910390fd5b600060018686868660405160008152602001604052604051808581526020018460ff1681526020018381526020018281526020019450505050506020604051602081039080840390855afa158015610f2a573d6000803e3d6000fd5b5050604051601f1901519150506001600160a01b038116610f92576040805162461bcd60e51b815260206004820152601860248201527f45434453413a20696e76616c6964207369676e61747572650000000000000000604482015290519081900360640190fd5b95945050505050565b80546001019055565b505050565b600082821115611000576040805162461bcd60e51b815260206004820152601e60248201527f536166654d6174683a207375627472616374696f6e206f766572666c6f770000604482015290519081900360640190fd5b50900390565b4690565b600080611015611006565b905060007f8b73c3c69bb8fe3d512ecc4cf759cc79239f7b179b0ffacaa9a75d522b39400f6110426103fe565b805160209182012060408051808201825260018152603160f81b90840152805180840194909452838101919091527fc89efdaa54c0f20c7adf612882df0950f5a951637e0307cdcb4c672f298b8bc66060840152608083018590523060a0808501919091528151808503909101815260c090930181528251928201929092206000948552600790915292208290555090509056fe45524332303a207472616e7366657220746f20746865207a65726f206164647265737345524332303a206275726e20616d6f756e7420657863656564732062616c616e636545524332303a20617070726f766520746f20746865207a65726f206164647265737345524332303a207472616e7366657220616d6f756e7420657863656564732062616c616e636545434453413a20696e76616c6964207369676e6174757265202773272076616c756545434453413a20696e76616c6964207369676e6174757265202776272076616c756545524332303a207472616e7366657220616d6f756e74206578636565647320616c6c6f77616e636545524332303a206275726e2066726f6d20746865207a65726f206164647265737345524332303a207472616e736665722066726f6d20746865207a65726f206164647265737345524332303a20617070726f76652066726f6d20746865207a65726f206164647265737345524332303a2064656372656173656420616c6c6f77616e63652062656c6f77207a65726fa26469706673582212207fb4774d7252b6b541d5383db4c94830ccc49439d14c433a8beef03387b51cd464736f6c63430007060033",
  "devdoc": {
    "kind": "dev",
    "methods": {},
    "version": 1
  },
  "userdoc": {
    "kind": "user",
    "methods": {},
    "version": 1
  },
  "storageLayout": {
    "storage": [
      {
        "astId": 12097,
        "contract": "contracts/helpers/TestUniswap.sol:TestUniswap",
        "label": "token",
        "offset": 0,
        "slot": "0",
        "type": "t_contract(IERC20)10593"
      },
      {
        "astId": 12099,
        "contract": "contracts/helpers/TestUniswap.sol:TestUniswap",
        "label": "rateMult",
        "offset": 0,
        "slot": "1",
        "type": "t_uint256"
      },
      {
        "astId": 12101,
        "contract": "contracts/helpers/TestUniswap.sol:TestUniswap",
        "label": "rateDiv",
        "offset": 0,
        "slot": "2",
        "type": "t_uint256"
      }
    ],
    "types": {
      "t_contract(IERC20)10593": {
        "encoding": "inplace",
        "label": "contract IERC20",
        "numberOfBytes": "20"
      },
      "t_uint256": {
        "encoding": "inplace",
        "label": "uint256",
        "numberOfBytes": "32"
      }
    }
  }
}