{
  "address": "0x995F11360f4c5b51CD0Cad05a983e8785219a4fF",
  "abi": [
    {
      "inputs": [
        {
          "internalType": "contract IUniswap[]",
          "name": "_uniswaps",
          "type": "address[]"
        }
      ],
      "stateMutability": "nonpayable",
      "type": "constructor"
    },
    {
      "anonymous": false,
      "inputs": [
        {
          "indexed": true,
          "internalType": "address",
          "name": "previousOwner",
          "type": "address"
        },
        {
          "indexed": true,
          "internalType": "address",
          "name": "newOwner",
          "type": "address"
        }
      ],
      "name": "OwnershipTransferred",
      "type": "event"
    },
    {
      "anonymous": false,
      "inputs": [
        {
          "indexed": false,
          "internalType": "uint256",
          "name": "eth",
          "type": "uint256"
        }
      ],
      "name": "Received",
      "type": "event"
    },
    {
      "anonymous": false,
      "inputs": [
        {
          "indexed": false,
          "internalType": "uint256",
          "name": "gasUseWithoutPost",
          "type": "uint256"
        },
        {
          "indexed": false,
          "internalType": "uint256",
          "name": "gasJustPost",
          "type": "uint256"
        },
        {
          "indexed": false,
          "internalType": "uint256",
          "name": "ethActualCharge",
          "type": "uint256"
        },
        {
          "indexed": false,
          "internalType": "uint256",
          "name": "tokenActualCharge",
          "type": "uint256"
        }
      ],
      "name": "TokensCharged",
      "type": "event"
    },
    {
      "inputs": [],
      "name": "CALLDATA_SIZE_LIMIT",
      "outputs": [
        {
          "internalType": "uint256",
          "name": "",
          "type": "uint256"
        }
      ],
      "stateMutability": "view",
      "type": "function"
    },
    {
      "inputs": [],
      "name": "FORWARDER_HUB_OVERHEAD",
      "outputs": [
        {
          "internalType": "uint256",
          "name": "",
          "type": "uint256"
        }
      ],
      "stateMutability": "view",
      "type": "function"
    },
    {
      "inputs": [],
      "name": "PAYMASTER_ACCEPTANCE_BUDGET",
      "outputs": [
        {
          "internalType": "uint256",
          "name": "",
          "type": "uint256"
        }
      ],
      "stateMutability": "view",
      "type": "function"
    },
    {
      "inputs": [],
      "name": "POST_RELAYED_CALL_GAS_LIMIT",
      "outputs": [
        {
          "internalType": "uint256",
          "name": "",
          "type": "uint256"
        }
      ],
      "stateMutability": "view",
      "type": "function"
    },
    {
      "inputs": [],
      "name": "PRE_RELAYED_CALL_GAS_LIMIT",
      "outputs": [
        {
          "internalType": "uint256",
          "name": "",
          "type": "uint256"
        }
      ],
      "stateMutability": "view",
      "type": "function"
    },
    {
      "inputs": [
        {
          "components": [
            {
              "components": [
                {
                  "internalType": "address",
                  "name": "from",
                  "type": "address"
                },
                {
                  "internalType": "address",
                  "name": "to",
                  "type": "address"
                },
                {
                  "internalType": "uint256",
                  "name": "value",
                  "type": "uint256"
                },
                {
                  "internalType": "uint256",
                  "name": "gas",
                  "type": "uint256"
                },
                {
                  "internalType": "uint256",
                  "name": "nonce",
                  "type": "uint256"
                },
                {
                  "internalType": "bytes",
                  "name": "data",
                  "type": "bytes"
                },
                {
                  "internalType": "uint256",
                  "name": "validUntil",
                  "type": "uint256"
                }
              ],
              "internalType": "struct IForwarder.ForwardRequest",
              "name": "request",
              "type": "tuple"
            },
            {
              "components": [
                {
                  "internalType": "uint256",
                  "name": "gasPrice",
                  "type": "uint256"
                },
                {
                  "internalType": "uint256",
                  "name": "pctRelayFee",
                  "type": "uint256"
                },
                {
                  "internalType": "uint256",
                  "name": "baseRelayFee",
                  "type": "uint256"
                },
                {
                  "internalType": "address",
                  "name": "relayWorker",
                  "type": "address"
                },
                {
                  "internalType": "address",
                  "name": "paymaster",
                  "type": "address"
                },
                {
                  "internalType": "address",
                  "name": "forwarder",
                  "type": "address"
                },
                {
                  "internalType": "bytes",
                  "name": "paymasterData",
                  "type": "bytes"
                },
                {
                  "internalType": "uint256",
                  "name": "clientId",
                  "type": "uint256"
                }
              ],
              "internalType": "struct GsnTypes.RelayData",
              "name": "relayData",
              "type": "tuple"
            }
          ],
          "internalType": "struct GsnTypes.RelayRequest",
          "name": "relayRequest",
          "type": "tuple"
        }
      ],
      "name": "_verifyForwarder",
      "outputs": [],
      "stateMutability": "view",
      "type": "function"
    },
    {
      "inputs": [],
      "name": "gasUsedByPost",
      "outputs": [
        {
          "internalType": "uint256",
          "name": "",
          "type": "uint256"
        }
      ],
      "stateMutability": "view",
      "type": "function"
    },
    {
      "inputs": [],
      "name": "getGasAndDataLimits",
      "outputs": [
        {
          "components": [
            {
              "internalType": "uint256",
              "name": "acceptanceBudget",
              "type": "uint256"
            },
            {
              "internalType": "uint256",
              "name": "preRelayedCallGasLimit",
              "type": "uint256"
            },
            {
              "internalType": "uint256",
              "name": "postRelayedCallGasLimit",
              "type": "uint256"
            },
            {
              "internalType": "uint256",
              "name": "calldataSizeLimit",
              "type": "uint256"
            }
          ],
          "internalType": "struct IPaymaster.GasAndDataLimits",
          "name": "limits",
          "type": "tuple"
        }
      ],
      "stateMutability": "view",
      "type": "function"
    },
    {
      "inputs": [],
      "name": "getHubAddr",
      "outputs": [
        {
          "internalType": "address",
          "name": "",
          "type": "address"
        }
      ],
      "stateMutability": "view",
      "type": "function"
    },
    {
      "inputs": [
        {
          "components": [
            {
              "components": [
                {
                  "internalType": "address",
                  "name": "from",
                  "type": "address"
                },
                {
                  "internalType": "address",
                  "name": "to",
                  "type": "address"
                },
                {
                  "internalType": "uint256",
                  "name": "value",
                  "type": "uint256"
                },
                {
                  "internalType": "uint256",
                  "name": "gas",
                  "type": "uint256"
                },
                {
                  "internalType": "uint256",
                  "name": "nonce",
                  "type": "uint256"
                },
                {
                  "internalType": "bytes",
                  "name": "data",
                  "type": "bytes"
                },
                {
                  "internalType": "uint256",
                  "name": "validUntil",
                  "type": "uint256"
                }
              ],
              "internalType": "struct IForwarder.ForwardRequest",
              "name": "request",
              "type": "tuple"
            },
            {
              "components": [
                {
                  "internalType": "uint256",
                  "name": "gasPrice",
                  "type": "uint256"
                },
                {
                  "internalType": "uint256",
                  "name": "pctRelayFee",
                  "type": "uint256"
                },
                {
                  "internalType": "uint256",
                  "name": "baseRelayFee",
                  "type": "uint256"
                },
                {
                  "internalType": "address",
                  "name": "relayWorker",
                  "type": "address"
                },
                {
                  "internalType": "address",
                  "name": "paymaster",
                  "type": "address"
                },
                {
                  "internalType": "address",
                  "name": "forwarder",
                  "type": "address"
                },
                {
                  "internalType": "bytes",
                  "name": "paymasterData",
                  "type": "bytes"
                },
                {
                  "internalType": "uint256",
                  "name": "clientId",
                  "type": "uint256"
                }
              ],
              "internalType": "struct GsnTypes.RelayData",
              "name": "relayData",
              "type": "tuple"
            }
          ],
          "internalType": "struct GsnTypes.RelayRequest",
          "name": "relayRequest",
          "type": "tuple"
        }
      ],
      "name": "getPayer",
      "outputs": [
        {
          "internalType": "address",
          "name": "",
          "type": "address"
        }
      ],
      "stateMutability": "view",
      "type": "function"
    },
    {
      "inputs": [],
      "name": "getRelayHubDeposit",
      "outputs": [
        {
          "internalType": "uint256",
          "name": "",
          "type": "uint256"
        }
      ],
      "stateMutability": "view",
      "type": "function"
    },
    {
      "inputs": [],
      "name": "owner",
      "outputs": [
        {
          "internalType": "address",
          "name": "",
          "type": "address"
        }
      ],
      "stateMutability": "view",
      "type": "function"
    },
    {
      "inputs": [
        {
          "internalType": "bytes",
          "name": "context",
          "type": "bytes"
        },
        {
          "internalType": "bool",
          "name": "",
          "type": "bool"
        },
        {
          "internalType": "uint256",
          "name": "gasUseWithoutPost",
          "type": "uint256"
        },
        {
          "components": [
            {
              "internalType": "uint256",
              "name": "gasPrice",
              "type": "uint256"
            },
            {
              "internalType": "uint256",
              "name": "pctRelayFee",
              "type": "uint256"
            },
            {
              "internalType": "uint256",
              "name": "baseRelayFee",
              "type": "uint256"
            },
            {
              "internalType": "address",
              "name": "relayWorker",
              "type": "address"
            },
            {
              "internalType": "address",
              "name": "paymaster",
              "type": "address"
            },
            {
              "internalType": "address",
              "name": "forwarder",
              "type": "address"
            },
            {
              "internalType": "bytes",
              "name": "paymasterData",
              "type": "bytes"
            },
            {
              "internalType": "uint256",
              "name": "clientId",
              "type": "uint256"
            }
          ],
          "internalType": "struct GsnTypes.RelayData",
          "name": "relayData",
          "type": "tuple"
        }
      ],
      "name": "postRelayedCall",
      "outputs": [],
      "stateMutability": "nonpayable",
      "type": "function"
    },
    {
      "inputs": [
        {
          "components": [
            {
              "components": [
                {
                  "internalType": "address",
                  "name": "from",
                  "type": "address"
                },
                {
                  "internalType": "address",
                  "name": "to",
                  "type": "address"
                },
                {
                  "internalType": "uint256",
                  "name": "value",
                  "type": "uint256"
                },
                {
                  "internalType": "uint256",
                  "name": "gas",
                  "type": "uint256"
                },
                {
                  "internalType": "uint256",
                  "name": "nonce",
                  "type": "uint256"
                },
                {
                  "internalType": "bytes",
                  "name": "data",
                  "type": "bytes"
                },
                {
                  "internalType": "uint256",
                  "name": "validUntil",
                  "type": "uint256"
                }
              ],
              "internalType": "struct IForwarder.ForwardRequest",
              "name": "request",
              "type": "tuple"
            },
            {
              "components": [
                {
                  "internalType": "uint256",
                  "name": "gasPrice",
                  "type": "uint256"
                },
                {
                  "internalType": "uint256",
                  "name": "pctRelayFee",
                  "type": "uint256"
                },
                {
                  "internalType": "uint256",
                  "name": "baseRelayFee",
                  "type": "uint256"
                },
                {
                  "internalType": "address",
                  "name": "relayWorker",
                  "type": "address"
                },
                {
                  "internalType": "address",
                  "name": "paymaster",
                  "type": "address"
                },
                {
                  "internalType": "address",
                  "name": "forwarder",
                  "type": "address"
                },
                {
                  "internalType": "bytes",
                  "name": "paymasterData",
                  "type": "bytes"
                },
                {
                  "internalType": "uint256",
                  "name": "clientId",
                  "type": "uint256"
                }
              ],
              "internalType": "struct GsnTypes.RelayData",
              "name": "relayData",
              "type": "tuple"
            }
          ],
          "internalType": "struct GsnTypes.RelayRequest",
          "name": "relayRequest",
          "type": "tuple"
        },
        {
          "internalType": "bytes",
          "name": "signature",
          "type": "bytes"
        },
        {
          "internalType": "bytes",
          "name": "approvalData",
          "type": "bytes"
        },
        {
          "internalType": "uint256",
          "name": "maxPossibleGas",
          "type": "uint256"
        }
      ],
      "name": "preRelayedCall",
      "outputs": [
        {
          "internalType": "bytes",
          "name": "context",
          "type": "bytes"
        },
        {
          "internalType": "bool",
          "name": "revertOnRecipientRevert",
          "type": "bool"
        }
      ],
      "stateMutability": "nonpayable",
      "type": "function"
    },
    {
      "inputs": [],
      "name": "renounceOwnership",
      "outputs": [],
      "stateMutability": "nonpayable",
      "type": "function"
    },
    {
      "inputs": [
        {
          "internalType": "uint256",
          "name": "_gasUsedByPost",
          "type": "uint256"
        }
      ],
      "name": "setPostGasUsage",
      "outputs": [],
      "stateMutability": "nonpayable",
      "type": "function"
    },
    {
      "inputs": [
        {
          "internalType": "contract IRelayHub",
          "name": "hub",
          "type": "address"
        }
      ],
      "name": "setRelayHub",
      "outputs": [],
      "stateMutability": "nonpayable",
      "type": "function"
    },
    {
      "inputs": [
        {
          "internalType": "contract IForwarder",
          "name": "forwarder",
          "type": "address"
        }
      ],
      "name": "setTrustedForwarder",
      "outputs": [],
      "stateMutability": "nonpayable",
      "type": "function"
    },
    {
      "inputs": [
        {
          "internalType": "uint256",
          "name": "",
          "type": "uint256"
        }
      ],
      "name": "tokens",
      "outputs": [
        {
          "internalType": "contract IERC20",
          "name": "",
          "type": "address"
        }
      ],
      "stateMutability": "view",
      "type": "function"
    },
    {
      "inputs": [
        {
          "internalType": "address",
          "name": "newOwner",
          "type": "address"
        }
      ],
      "name": "transferOwnership",
      "outputs": [],
      "stateMutability": "nonpayable",
      "type": "function"
    },
    {
      "inputs": [],
      "name": "trustedForwarder",
      "outputs": [
        {
          "internalType": "contract IForwarder",
          "name": "",
          "type": "address"
        }
      ],
      "stateMutability": "view",
      "type": "function"
    },
    {
      "inputs": [
        {
          "internalType": "uint256",
          "name": "",
          "type": "uint256"
        }
      ],
      "name": "uniswaps",
      "outputs": [
        {
          "internalType": "contract IUniswap",
          "name": "",
          "type": "address"
        }
      ],
      "stateMutability": "view",
      "type": "function"
    },
    {
      "inputs": [],
      "name": "versionPaymaster",
      "outputs": [
        {
          "internalType": "string",
          "name": "",
          "type": "string"
        }
      ],
      "stateMutability": "view",
      "type": "function"
    },
    {
      "inputs": [
        {
          "internalType": "uint256",
          "name": "amount",
          "type": "uint256"
        },
        {
          "internalType": "address payable",
          "name": "target",
          "type": "address"
        }
      ],
      "name": "withdrawRelayHubDepositTo",
      "outputs": [],
      "stateMutability": "nonpayable",
      "type": "function"
    },
    {
      "stateMutability": "payable",
      "type": "receive"
    }
  ],
  "transactionHash": "0x6dcd84caeccbca421c400b76924e16a0848a82fe6179ba24c3dc65d2f5f8f5ba",
  "args": [
    [
      "0x0C8105BEA571004771D9fEfB6F8676b389827D0a"
    ]
  ],
  "solcInputHash": "2f791f155074b8c44a604157edf78b84",
  "bytecode": "0x60806040523480156200001157600080fd5b506040516200222238038062002222833981016040819052620000349162000347565b6000620000406200028a565b600080546001600160a01b0319166001600160a01b0383169081178255604051929350917f8be0079c531659141344cd1fd0a4f28419497f9722a3daafe3b4186f6b6457e0908290a35080516200009f9060039060208401906200028e565b5060005b81518110156200028257600160056000848481518110620000c057fe5b60200260200101516001600160a01b03166001600160a01b0316815260200190815260200160002060006101000a81548160ff02191690831515021790555060048282815181106200010e57fe5b60200260200101516001600160a01b0316639d76ea586040518163ffffffff1660e01b815260040160206040518083038186803b1580156200014f57600080fd5b505afa15801562000164573d6000803e3d6000fd5b505050506040513d601f19601f820116820180604052508101906200018a919062000321565b81546001810183556000928352602090922090910180546001600160a01b0319166001600160a01b039092169190911790556004805482908110620001cb57fe5b60009182526020909120015482516001600160a01b039091169063095ea7b390849084908110620001f857fe5b60200260200101516000196040518363ffffffff1660e01b81526004016200022292919062000427565b602060405180830381600087803b1580156200023d57600080fd5b505af115801562000252573d6000803e3d6000fd5b505050506040513d601f19601f8201168201806040525081019062000278919062000405565b50600101620000a3565b505062000459565b3390565b828054828255906000526020600020908101928215620002e6579160200282015b82811115620002e657825182546001600160a01b0319166001600160a01b03909116178255602090920191600190910190620002af565b50620002f4929150620002f8565b5090565b5b80821115620002f45760008155600101620002f9565b80516200031c8162000440565b919050565b60006020828403121562000333578081fd5b8151620003408162000440565b9392505050565b600060208083850312156200035a578182fd5b82516001600160401b038082111562000371578384fd5b818501915085601f83011262000385578384fd5b8151818111156200039257fe5b83810260405185828201018181108582111715620003ac57fe5b604052828152858101935084860182860187018a1015620003cb578788fd5b8795505b83861015620003f857620003e3816200030f565b855260019590950194938601938601620003cf565b5098975050505050505050565b60006020828403121562000417578081fd5b8151801515811462000340578182fd5b6001600160a01b03929092168252602082015260400190565b6001600160a01b03811681146200045657600080fd5b50565b611db980620004696000396000f3fe60806040526004361061014e5760003560e01c80637da0a877116100b6578063b90b41cf1161006f578063b90b41cf146103bb578063bbdaa3c9146103d0578063da742228146103e5578063df463a6614610405578063f2fde38b1461041a578063f9c002f71461043a5761018c565b80637da0a877146103185780638da5cb5b1461032d578063921276ea14610342578063a5dcd07b14610364578063ad12e50e14610384578063b039a88f146103995761018c565b80636184391411610108578063618439141461026e5780636d7c3e2b1461028e578063715018a6146102ae57806374e861d6146102c357806376fa01c3146102d85780637bb05264146102f85761018c565b8062be5dd4146101915780632afe31c1146101c85780632d14c4b7146101ea57806341bbb7ca1461020c5780634f64b2be146102395780635c5e3db1146102595761018c565b3661018c577fa8142743f8f70a4c26f3691cf4ed59718381fb2f18070ec52be1f1022d855557346040516101829190611bae565b60405180910390a1005b600080fd5b34801561019d57600080fd5b506101b16101ac36600461162b565b61044f565b6040516101bf9291906118c2565b60405180910390f35b3480156101d457600080fd5b506101dd6105c4565b6040516101bf9190611bae565b3480156101f657600080fd5b5061020a6102053660046116f4565b61064a565b005b34801561021857600080fd5b5061022c6102273660046115f0565b610712565b6040516101bf9190611846565b34801561024557600080fd5b5061022c6102543660046116c4565b610737565b34801561026557600080fd5b506101dd610761565b34801561027a57600080fd5b5061022c6102893660046116c4565b610767565b34801561029a57600080fd5b5061020a6102a93660046116c4565b610777565b3480156102ba57600080fd5b5061020a6107de565b3480156102cf57600080fd5b5061022c61088a565b3480156102e457600080fd5b5061020a6102f3366004611564565b610899565b34801561030457600080fd5b5061020a6103133660046114be565b610905565b34801561032457600080fd5b5061022c610989565b34801561033957600080fd5b5061022c610998565b34801561034e57600080fd5b506103576109a7565b6040516101bf91906118e6565b34801561037057600080fd5b5061020a61037f3660046115f0565b6109de565b34801561039057600080fd5b506101dd610a35565b3480156103a557600080fd5b506103ae610a3b565b6040516101bf9190611ab0565b3480156103c757600080fd5b506101dd610a73565b3480156103dc57600080fd5b506101dd610a79565b3480156103f157600080fd5b5061020a6104003660046114be565b610a80565b34801561041157600080fd5b506101dd610b04565b34801561042657600080fd5b5061020a6104353660046114be565b610b0b565b34801561044657600080fd5b506101dd610c0d565b6060600061045b61088a565b6001600160a01b0316336001600160a01b0316146104945760405162461bcd60e51b815260040161048b90611a31565b60405180910390fd5b6000806104ef6104a760208c018c611c72565b6104b59060c0810190611c18565b8080601f016020809104026020016040519081016040528093929190818152602001838380828437600092019190915250610c1492505050565b9150915060008061050284848e8a610d5a565b6040516323b872dd60e01b815291935091506001600160a01b038516906323b872dd906105379085903090869060040161185a565b602060405180830381600087803b15801561055157600080fd5b505af1158015610565573d6000803e3d6000fd5b505050506040513d601f19601f820116820180604052508101906105899190611548565b50818185856040516020016105a19493929190611897565b60408051601f198184030181529190529c60009c509a5050505050505050505050565b6001546040516370a0823160e01b81526000916001600160a01b0316906370a08231906105f5903090600401611846565b60206040518083038186803b15801561060d57600080fd5b505afa158015610621573d6000803e3d6000fd5b505050506040513d601f19601f8201168201806040525081019061064591906116dc565b905090565b610652610f00565b6001600160a01b0316610663610998565b6001600160a01b0316146106ac576040805162461bcd60e51b81526020600482018190526024820152600080516020611d64833981519152604482015290519081900360640190fd5b600154604051627b8a6760e11b81526001600160a01b039091169062f714ce906106dc9085908590600401611bb7565b600060405180830381600087803b1580156106f657600080fd5b505af115801561070a573d6000803e3d6000fd5b505050505050565b600061071e8280611c5d565b61072f9060408101906020016114be565b90505b919050565b6004818154811061074757600080fd5b6000918252602090912001546001600160a01b0316905081565b61290481565b6003818154811061074757600080fd5b61077f610f00565b6001600160a01b0316610790610998565b6001600160a01b0316146107d9576040805162461bcd60e51b81526020600482018190526024820152600080516020611d64833981519152604482015290519081900360640190fd5b600655565b6107e6610f00565b6001600160a01b03166107f7610998565b6001600160a01b031614610840576040805162461bcd60e51b81526020600482018190526024820152600080516020611d64833981519152604482015290519081900360640190fd5b600080546040516001600160a01b03909116907f8be0079c531659141344cd1fd0a4f28419497f9722a3daafe3b4186f6b6457e0908390a3600080546001600160a01b0319169055565b6001546001600160a01b031690565b6108a161088a565b6001600160a01b0316336001600160a01b0316146108d15760405162461bcd60e51b815260040161048b90611a31565b60008080806108e2888a018a6114f6565b93509350935093506108fa8484600089898787610f04565b505050505050505050565b61090d610f00565b6001600160a01b031661091e610998565b6001600160a01b031614610967576040805162461bcd60e51b81526020600482018190526024820152600080516020611d64833981519152604482015290519081900360640190fd5b600180546001600160a01b0319166001600160a01b0392909216919091179055565b6002546001600160a01b031681565b6000546001600160a01b031690565b60408051808201909152601e81527f322e322e302b6f70656e67736e2e746f6b656e2e697061796d61737465720000602082015290565b6109eb6020820182611c72565b6109fc9060c081019060a0016114be565b6002546001600160a01b03908116911614610a295760405162461bcd60e51b815260040161048b9061198e565b610a328161108f565b50565b60065481565b610a4361142d565b5060408051608081018252620249f08152620186a060208201526201adb091810191909152612904606082015290565b61c35081565b6201adb081565b610a88610f00565b6001600160a01b0316610a99610998565b6001600160a01b031614610ae2576040805162461bcd60e51b81526020600482018190526024820152600080516020611d64833981519152604482015290519081900360640190fd5b600280546001600160a01b0319166001600160a01b0392909216919091179055565b620249f081565b610b13610f00565b6001600160a01b0316610b24610998565b6001600160a01b031614610b6d576040805162461bcd60e51b81526020600482018190526024820152600080516020611d64833981519152604482015290519081900360640190fd5b6001600160a01b038116610bb25760405162461bcd60e51b8152600401808060200182810382526026815260200180611d3e6026913960400191505060405180910390fd5b600080546040516001600160a01b03808516939216917f8be0079c531659141344cd1fd0a4f28419497f9722a3daafe3b4186f6b6457e091a3600080546001600160a01b0319166001600160a01b0392909216919091179055565b620186a081565b600080825160001415610c71576004600081548110610c2f57fe5b6000918252602082200154600380546001600160a01b03909216929091610c5257fe5b6000918252602090912001549092506001600160a01b03169050610d55565b8251602014610c925760405162461bcd60e51b815260040161048b90611a68565b82806020019051810190610ca691906114da565b6001600160a01b03811660009081526005602052604090205490915060ff16610ce15760405162461bcd60e51b815260040161048b906119c5565b806001600160a01b0316639d76ea586040518163ffffffff1660e01b815260040160206040518083038186803b158015610d1a57600080fd5b505afa158015610d2e573d6000803e3d6000fd5b505050506040513d601f19601f82011682018060405250810190610d5291906114da565b91505b915091565b6040516320dddbe560e11b8152600090819030906341bbb7ca90610d82908790600401611adb565b60206040518083038186803b158015610d9a57600080fd5b505afa158015610dae573d6000803e3d6000fd5b505050506040513d601f19601f82011682018060405250810190610dd291906114da565b6001549092506000906001600160a01b0316638e53548b85610df76020890189611c72565b6040518363ffffffff1660e01b8152600401610e14929190611bce565b60206040518083038186803b158015610e2c57600080fd5b505afa158015610e40573d6000803e3d6000fd5b505050506040513d601f19601f82011682018060405250810190610e6491906116dc565b9050610e708580611c5d565b6040013581019050856001600160a01b0316632640f62c826040518263ffffffff1660e01b8152600401610ea49190611bae565b60206040518083038186803b158015610ebc57600080fd5b505afa158015610ed0573d6000803e3d6000fd5b505050506040513d601f19601f82011682018060405250810190610ef491906116dc565b91505094509492505050565b3390565b6001546006546000916001600160a01b031690638e53548b90610f289088906111e2565b866040518363ffffffff1660e01b8152600401610f46929190611bce565b60206040518083038186803b158015610f5e57600080fd5b505afa158015610f72573d6000803e3d6000fd5b505050506040513d601f19601f82011682018060405250810190610f9691906116dc565b905060006001600160a01b038316632640f62c610fb389856111e2565b6040518263ffffffff1660e01b8152600401610fcf9190611bae565b60206040518083038186803b158015610fe757600080fd5b505afa158015610ffb573d6000803e3d6000fd5b505050506040513d601f19601f8201168201806040525081019061101f91906116dc565b9050600061102d8983611243565b905061103a8a86836112a0565b611044838561133c565b7fb3d69ff8981e297b4ab7fb9ba8e8a080ffebbee9f273bfa2d10116a82368304587600654858560405161107b9493929190611bfd565b60405180910390a150505050505050505050565b60008061109c8380611c5d565b6110ad9060408101906020016114be565b6001600160a01b031663572b6c0560e01b6110cb6020860186611c72565b6110dc9060c081019060a0016114be565b6040516024016110ec9190611846565b60408051601f198184030181529181526020820180516001600160e01b03166001600160e01b031990941693909317909252905161112a919061182a565b600060405180830381855afa9150503d8060008114611165576040519150601f19603f3d011682016040523d82523d6000602084013e61116a565b606091505b50915091508161118c5760405162461bcd60e51b815260040161048b90611930565b80516020146111ad5760405162461bcd60e51b815260040161048b906119fc565b808060200190518101906111c19190611548565b6111dd5760405162461bcd60e51b815260040161048b906118f9565b505050565b60008282018381101561123c576040805162461bcd60e51b815260206004820152601b60248201527f536166654d6174683a206164646974696f6e206f766572666c6f770000000000604482015290519081900360640190fd5b9392505050565b60008282111561129a576040805162461bcd60e51b815260206004820152601e60248201527f536166654d6174683a207375627472616374696f6e206f766572666c6f770000604482015290519081900360640190fd5b50900390565b60405163a9059cbb60e01b81526001600160a01b0383169063a9059cbb906112ce908690859060040161187e565b602060405180830381600087803b1580156112e857600080fd5b505af11580156112fc573d6000803e3d6000fd5b505050506040513d601f19601f820116820180604052508101906113209190611548565b6111dd5760405162461bcd60e51b815260040161048b90611967565b60405163013efd8b60e01b81526001600160a01b0382169063013efd8b9061137290859060001990610384420190600401611be7565b602060405180830381600087803b15801561138c57600080fd5b505af11580156113a0573d6000803e3d6000fd5b505050506040513d601f19601f820116820180604052508101906113c491906116dc565b5060015460405163aa67c91960e01b81526001600160a01b039091169063aa67c9199084906113f7903090600401611846565b6000604051808303818588803b15801561141057600080fd5b505af1158015611424573d6000803e3d6000fd5b50505050505050565b6040518060800160405280600081526020016000815260200160008152602001600081525090565b803561073281611d1a565b60008083601f840112611471578182fd5b50813567ffffffffffffffff811115611488578182fd5b6020830191508360208285010111156114a057600080fd5b9250929050565b6000604082840312156114b8578081fd5b50919050565b6000602082840312156114cf578081fd5b813561123c81611d1a565b6000602082840312156114eb578081fd5b815161123c81611d1a565b6000806000806080858703121561150b578283fd5b843561151681611d1a565b935060208501359250604085013561152d81611d1a565b9150606085013561153d81611d1a565b939692955090935050565b600060208284031215611559578081fd5b815161123c81611d2f565b60008060008060006080868803121561157b578081fd5b853567ffffffffffffffff80821115611592578283fd5b61159e89838a01611460565b9097509550602088013591506115b382611d2f565b90935060408701359250606087013590808211156115cf578283fd5b50860161010081890312156115e2578182fd5b809150509295509295909350565b600060208284031215611601578081fd5b813567ffffffffffffffff811115611617578182fd5b611623848285016114a7565b949350505050565b60008060008060008060808789031215611643578081fd5b863567ffffffffffffffff8082111561165a578283fd5b6116668a838b016114a7565b9750602089013591508082111561167b578283fd5b6116878a838b01611460565b9097509550604089013591508082111561169f578283fd5b506116ac89828a01611460565b979a9699509497949695606090950135949350505050565b6000602082840312156116d5578081fd5b5035919050565b6000602082840312156116ed578081fd5b5051919050565b60008060408385031215611706578182fd5b82359150602083013561171881611d1a565b809150509250929050565b6001600160a01b03169052565b60008284528282602086013780602084860101526020601f19601f85011685010190509392505050565b60008151808452611772816020860160208601611cea565b601f01601f19169290920160200192915050565b600061010082358452602083013560208501526040830135604085015260608301356117b181611d1a565b6001600160a01b0390811660608601526080840135906117d082611d1a565b16608085015260a08301356117e481611d1a565b6117f160a0860182611723565b506117ff60c0840184611c87565b8260c08701526118128387018284611730565b9250505060e083013560e08501528091505092915050565b6000825161183c818460208701611cea565b9190910192915050565b6001600160a01b0391909116815260200190565b6001600160a01b039384168152919092166020820152604081019190915260600190565b6001600160a01b03929092168252602082015260400190565b6001600160a01b03948516815260208101939093529083166040830152909116606082015260800190565b6000604082526118d5604083018561175a565b905082151560208301529392505050565b60006020825261123c602083018461175a565b6020808252601f908201527f696e76616c696420666f7277617264657220666f7220726563697069656e7400604082015260600190565b6020808252601c908201527f697354727573746564466f727761726465723a20726576657274656400000000604082015260600190565b6020808252600d908201526c19985a5b1959081c99599d5b99609a1b604082015260600190565b60208082526018908201527f466f72776172646572206973206e6f7420747275737465640000000000000000604082015260600190565b60208082526019908201527f756e737570706f7274656420746f6b656e20756e697377617000000000000000604082015260600190565b6020808252818101527f697354727573746564466f727761726465723a2062616420726573706f6e7365604082015260600190565b6020808252601e908201527f63616e206f6e6c792062652063616c6c65642062792052656c61794875620000604082015260600190565b60208082526028908201527f696e76616c696420756e6973776170206164647265737320696e207061796d61604082015267737465724461746160c01b606082015260800190565b8151815260208083015190820152604080830151908201526060918201519181019190915260800190565b600060208252823560de19843603018112611af4578182fd5b6040602084015283018035611b0881611d1a565b6001600160a01b03166060840152611b2260208201611455565b611b2f6080850182611723565b50604081013560a0840152606081013560c0840152608081013560e0840152611b5b60a0820182611c87565b60e0610100860152611b7261014086018284611730565b91505060c0820135610120850152611b8d6020860186611ccc565b848203601f190160408601529150611ba58183611786565b95945050505050565b90815260200190565b9182526001600160a01b0316602082015260400190565b6000838252604060208301526116236040830184611786565b9283526020830191909152604082015260600190565b93845260208401929092526040830152606082015260800190565b6000808335601e19843603018112611c2e578283fd5b83018035915067ffffffffffffffff821115611c48578283fd5b6020019150368190038213156114a057600080fd5b6000823560de1983360301811261183c578182fd5b6000823560fe1983360301811261183c578182fd5b6000808335601e19843603018112611c9d578283fd5b830160208101925035905067ffffffffffffffff811115611cbd57600080fd5b8036038313156114a057600080fd5b6000823560fe19833603018112611ce1578182fd5b90910192915050565b60005b83811015611d05578181015183820152602001611ced565b83811115611d14576000848401525b50505050565b6001600160a01b0381168114610a3257600080fd5b8015158114610a3257600080fdfe4f776e61626c653a206e6577206f776e657220697320746865207a65726f20616464726573734f776e61626c653a2063616c6c6572206973206e6f7420746865206f776e6572a26469706673582212202093e8f1b11218c6523b7d9bd30da2c8e9dd871109c5f9e00e0b42312c5d4b1c64736f6c63430007060033",
  "devdoc": {
    "kind": "dev",
    "methods": {
      "owner()": {
        "details": "Returns the address of the current owner."
      },
      "preRelayedCall(((address,address,uint256,uint256,uint256,bytes,uint256),(uint256,uint256,uint256,address,address,address,bytes,uint256)),bytes,bytes,uint256)": {
        "params": {
          "approvalData": "- extra dapp-specific data (e.g. signature from trusted party)",
          "maxPossibleGas": "- based on values returned from {@link getGasAndDataLimits},         the RelayHub will calculate the maximum possible amount of gas the user may be charged for.         In order to convert this value to wei, the Paymaster has to call \"relayHub.calculateCharge()\"  return:      a context to be passed to postRelayedCall      rejectOnRecipientRevert - TRUE if paymaster want to reject the TX if the recipient reverts.          FALSE means that rejects by the recipient will be completed on chain, and paid by the paymaster.          (note that in the latter case, the preRelayedCall and postRelayedCall are not reverted).",
          "relayRequest": "- the full relay request structure",
          "signature": "- user's EIP712-compatible signature of the {@link relayRequest}.              Note that in most cases the paymaster shouldn't try use it at all. It is always checked              by the forwarder immediately after preRelayedCall returns."
        }
      },
      "renounceOwnership()": {
        "details": "Leaves the contract without owner. It will not be possible to call `onlyOwner` functions anymore. Can only be called by the current owner. NOTE: Renouncing ownership will leave the contract without an owner, thereby removing any functionality that is only available to the owner."
      },
      "transferOwnership(address)": {
        "details": "Transfers ownership of the contract to a new account (`newOwner`). Can only be called by the current owner."
      }
    },
    "version": 1
  },
  "userdoc": {
    "kind": "user",
    "methods": {
      "getGasAndDataLimits()": {
        "notice": "Return the Gas Limits and msg.data max size constants used by the Paymaster."
      },
      "getHubAddr()": {
        "notice": "return the relayHub of this contract."
      },
      "getRelayHubDeposit()": {
        "notice": "check current deposit on relay hub."
      },
      "preRelayedCall(((address,address,uint256,uint256,uint256,bytes,uint256),(uint256,uint256,uint256,address,address,address,bytes,uint256)),bytes,bytes,uint256)": {
        "notice": "Called by Relay (and RelayHub), to validate if the paymaster agrees to pay for this call. MUST be protected with relayHubOnly() in case it modifies state. The Paymaster rejects by the following \"revert\" operations  - preRelayedCall() method reverts  - the forwarder reverts because of nonce or signature error  - the paymaster returned \"rejectOnRecipientRevert\", and the recipient contract reverted. In any of the above cases, all paymaster calls (and recipient call) are reverted. In any other case, the paymaster agrees to pay for the gas cost of the transaction (note  that this includes also postRelayedCall revert) The rejectOnRecipientRevert flag means the Paymaster \"delegate\" the rejection to the recipient  code.  It also means the Paymaster trust the recipient to reject fast: both preRelayedCall,  forwarder check and receipient checks must fit into the GasLimits.acceptanceBudget,  otherwise the TX is paid by the Paymaster."
      },
      "setPostGasUsage(uint256)": {
        "notice": "set gas used by postRelayedCall, for proper gas calculation. You can use TokenGasCalculator to calculate these values (they depend on actual code of postRelayedCall, but also the gas usage of the token and of Uniswap)"
      },
      "withdrawRelayHubDepositTo(uint256,address)": {
        "notice": "withdraw deposit from relayHub"
      }
    },
    "notice": "A Token-based paymaster. - each request is paid for by the caller. - acceptRelayedCall - verify the caller can pay for the request in tokens. - preRelayedCall - pre-pay the maximum possible price for the tx - postRelayedCall - refund the caller for the unused gas",
    "version": 1
  },
  "storageLayout": {
    "storage": [
      {
        "astId": 9555,
        "contract": "contracts/TokenPaymaster.sol:TokenPaymaster",
        "label": "_owner",
        "offset": 0,
        "slot": "0",
        "type": "t_address"
      },
      {
        "astId": 8203,
        "contract": "contracts/TokenPaymaster.sol:TokenPaymaster",
        "label": "relayHub",
        "offset": 0,
        "slot": "1",
        "type": "t_contract(IRelayHub)8825"
      },
      {
        "astId": 8206,
        "contract": "contracts/TokenPaymaster.sol:TokenPaymaster",
        "label": "trustedForwarder",
        "offset": 0,
        "slot": "2",
        "type": "t_contract(IForwarder)8461"
      },
      {
        "astId": 11241,
        "contract": "contracts/TokenPaymaster.sol:TokenPaymaster",
        "label": "uniswaps",
        "offset": 0,
        "slot": "3",
        "type": "t_array(t_contract(IUniswap)12310)dyn_storage"
      },
      {
        "astId": 11244,
        "contract": "contracts/TokenPaymaster.sol:TokenPaymaster",
        "label": "tokens",
        "offset": 0,
        "slot": "4",
        "type": "t_array(t_contract(IERC20)10593)dyn_storage"
      },
      {
        "astId": 11248,
        "contract": "contracts/TokenPaymaster.sol:TokenPaymaster",
        "label": "supportedUniswaps",
        "offset": 0,
        "slot": "5",
        "type": "t_mapping(t_contract(IUniswap)12310,t_bool)"
      },
      {
        "astId": 11250,
        "contract": "contracts/TokenPaymaster.sol:TokenPaymaster",
        "label": "gasUsedByPost",
        "offset": 0,
        "slot": "6",
        "type": "t_uint256"
      }
    ],
    "types": {
      "t_address": {
        "encoding": "inplace",
        "label": "address",
        "numberOfBytes": "20"
      },
      "t_array(t_contract(IERC20)10593)dyn_storage": {
        "base": "t_contract(IERC20)10593",
        "encoding": "dynamic_array",
        "label": "contract IERC20[]",
        "numberOfBytes": "32"
      },
      "t_array(t_contract(IUniswap)12310)dyn_storage": {
        "base": "t_contract(IUniswap)12310",
        "encoding": "dynamic_array",
        "label": "contract IUniswap[]",
        "numberOfBytes": "32"
      },
      "t_bool": {
        "encoding": "inplace",
        "label": "bool",
        "numberOfBytes": "1"
      },
      "t_contract(IERC20)10593": {
        "encoding": "inplace",
        "label": "contract IERC20",
        "numberOfBytes": "20"
      },
      "t_contract(IForwarder)8461": {
        "encoding": "inplace",
        "label": "contract IForwarder",
        "numberOfBytes": "20"
      },
      "t_contract(IRelayHub)8825": {
        "encoding": "inplace",
        "label": "contract IRelayHub",
        "numberOfBytes": "20"
      },
      "t_contract(IUniswap)12310": {
        "encoding": "inplace",
        "label": "contract IUniswap",
        "numberOfBytes": "20"
      },
      "t_mapping(t_contract(IUniswap)12310,t_bool)": {
        "encoding": "mapping",
        "key": "t_contract(IUniswap)12310",
        "label": "mapping(contract IUniswap => bool)",
        "numberOfBytes": "32",
        "value": "t_bool"
      },
      "t_uint256": {
        "encoding": "inplace",
        "label": "uint256",
        "numberOfBytes": "32"
      }
    }
  }
}