{
  "_format": "hh-sol-artifact-1",
  "contractName": "FreeCoin",
  "sourceName": "contracts/FreeCoin.sol",
  "abi": [
    {
      "inputs": [
        {
          "internalType": "uint256",
          "name": "chainId_",
          "type": "uint256"
        }
      ],
      "stateMutability": "nonpayable",
      "type": "constructor"
    },
    {
      "inputs": [],
      "name": "DOMAIN_SEPARATOR",
      "outputs": [
        {
          "internalType": "bytes32",
          "name": "",
          "type": "bytes32"
        }
      ],
      "stateMutability": "view",
      "type": "function"
    },
    {
      "inputs": [],
      "name": "PERMIT_TYPEHASH",
      "outputs": [
        {
          "internalType": "bytes32",
          "name": "",
          "type": "bytes32"
        }
      ],
      "stateMutability": "view",
      "type": "function"
    },
    {
      "inputs": [
        {
          "internalType": "address",
          "name": "_spender",
          "type": "address"
        },
        {
          "internalType": "uint256",
          "name": "_value",
          "type": "uint256"
        }
      ],
      "name": "approve",
      "outputs": [
        {
          "internalType": "bool",
          "name": "success",
          "type": "bool"
        }
      ],
      "stateMutability": "nonpayable",
      "type": "function"
    },
    {
      "inputs": [
        {
          "internalType": "address",
          "name": "_owner",
          "type": "address"
        }
      ],
      "name": "balanceOf",
      "outputs": [
        {
          "internalType": "uint256",
          "name": "balance",
          "type": "uint256"
        }
      ],
      "stateMutability": "view",
      "type": "function"
    },
    {
      "inputs": [],
      "name": "decimals",
      "outputs": [
        {
          "internalType": "uint256",
          "name": "",
          "type": "uint256"
        }
      ],
      "stateMutability": "view",
      "type": "function"
    },
    {
      "inputs": [],
      "name": "description",
      "outputs": [
        {
          "internalType": "string",
          "name": "",
          "type": "string"
        }
      ],
      "stateMutability": "view",
      "type": "function"
    },
    {
      "inputs": [
        {
          "internalType": "uint256",
          "name": "amount",
          "type": "uint256"
        },
        {
          "internalType": "address",
          "name": "receiver",
          "type": "address"
        }
      ],
      "name": "mint",
      "outputs": [],
      "stateMutability": "nonpayable",
      "type": "function"
    },
    {
      "inputs": [],
      "name": "name",
      "outputs": [
        {
          "internalType": "string",
          "name": "",
          "type": "string"
        }
      ],
      "stateMutability": "view",
      "type": "function"
    },
    {
      "inputs": [
        {
          "internalType": "address",
          "name": "",
          "type": "address"
        }
      ],
      "name": "nonces",
      "outputs": [
        {
          "internalType": "uint256",
          "name": "",
          "type": "uint256"
        }
      ],
      "stateMutability": "view",
      "type": "function"
    },
    {
      "inputs": [
        {
          "internalType": "address",
          "name": "holder",
          "type": "address"
        },
        {
          "internalType": "address",
          "name": "spender",
          "type": "address"
        },
        {
          "internalType": "uint256",
          "name": "nonce",
          "type": "uint256"
        },
        {
          "internalType": "uint256",
          "name": "expiry",
          "type": "uint256"
        },
        {
          "internalType": "bool",
          "name": "allowed",
          "type": "bool"
        },
        {
          "internalType": "uint8",
          "name": "v",
          "type": "uint8"
        },
        {
          "internalType": "bytes32",
          "name": "r",
          "type": "bytes32"
        },
        {
          "internalType": "bytes32",
          "name": "s",
          "type": "bytes32"
        }
      ],
      "name": "permit",
      "outputs": [],
      "stateMutability": "nonpayable",
      "type": "function"
    },
    {
      "inputs": [],
      "name": "symbol",
      "outputs": [
        {
          "internalType": "string",
          "name": "",
          "type": "string"
        }
      ],
      "stateMutability": "view",
      "type": "function"
    },
    {
      "inputs": [
        {
          "internalType": "address",
          "name": "_to",
          "type": "address"
        },
        {
          "internalType": "uint256",
          "name": "_value",
          "type": "uint256"
        }
      ],
      "name": "transfer",
      "outputs": [
        {
          "internalType": "bool",
          "name": "success",
          "type": "bool"
        }
      ],
      "stateMutability": "nonpayable",
      "type": "function"
    },
    {
      "inputs": [
        {
          "internalType": "address",
          "name": "_from",
          "type": "address"
        },
        {
          "internalType": "address",
          "name": "_to",
          "type": "address"
        },
        {
          "internalType": "uint256",
          "name": "_value",
          "type": "uint256"
        }
      ],
      "name": "transferFrom",
      "outputs": [
        {
          "internalType": "bool",
          "name": "success",
          "type": "bool"
        }
      ],
      "stateMutability": "nonpayable",
      "type": "function"
    },
    {
      "inputs": [],
      "name": "version",
      "outputs": [
        {
          "internalType": "string",
          "name": "",
          "type": "string"
        }
      ],
      "stateMutability": "view",
      "type": "function"
    }
  ],
  "bytecode": "0x60c06040526002608081905261464360f01b60a090815262000025916000919062000241565b5060408051808201909152600e8082526d2230b49029ba30b13632b1b7b4b760911b60209092019182526200005d9160019162000241565b50604080518082019091526001808252603160f81b6020909201918252620000889160029162000241565b5060408051808201909152600880825267233932b2a1b7b4b760c11b6020909201918252620000ba9160039162000241565b506000600455348015620000cd57600080fd5b5060405162000c7438038062000c7483398181016040526020811015620000f357600080fd5b5051604051600180547f8b73c3c69bb8fe3d512ecc4cf759cc79239f7b179b0ffacaa9a75d522b39400f92908190839060026000196101008385161502019091160480156200017c5780601f10620001595761010080835404028352918201916200017c565b820191906000526020600020905b81548152906001019060200180831162000167575b5050915050604051809103902060026040518082805460018160011615610100020316600290048015620001ea5780601f10620001c7576101008083540402835291820191620001ea565b820191906000526020600020905b815481529060010190602001808311620001d5575b505060408051918290038220602080840197909752828201959095526060820194909452608081019590955250503060a0808501919091528151808503909101815260c090930190528151910120600755620002ed565b828054600181600116156101000203166002900490600052602060002090601f016020900481019282620002795760008555620002c4565b82601f106200029457805160ff1916838001178555620002c4565b82800160010185558215620002c4579182015b82811115620002c4578251825591602001919060010190620002a7565b50620002d2929150620002d6565b5090565b5b80821115620002d25760008155600101620002d7565b61097780620002fd6000396000f3fe608060405234801561001057600080fd5b50600436106100ea5760003560e01c806370a082311161008c5780638fcbaf0c116100665780638fcbaf0c1461026857806394bf804d146102c457806395d89b41146102f0578063a9059cbb146102f8576100ea565b806370a08231146102145780637284e4161461023a5780637ecebe0014610242576100ea565b806330adf81f116100c857806330adf81f146101e2578063313ce567146101fc5780633644e5151461020457806354fd4d501461020c576100ea565b806306fdde03146100ef578063095ea7b31461016c57806323b872dd146101ac575b600080fd5b6100f7610324565b6040805160208082528351818301528351919283929083019185019080838360005b83811015610131578181015183820152602001610119565b50505050905090810190601f16801561015e5780820380516001836020036101000a031916815260200191505b509250505060405180910390f35b6101986004803603604081101561018257600080fd5b506001600160a01b0381351690602001356103b1565b604080519115158252519081900360200190f35b610198600480360360608110156101c257600080fd5b506001600160a01b038135811691602081013590911690604001356103e0565b6101ea610494565b60408051918252519081900360200190f35b6101ea6104b8565b6101ea6104be565b6100f76104c4565b6101ea6004803603602081101561022a57600080fd5b50356001600160a01b031661051c565b6100f7610537565b6101ea6004803603602081101561025857600080fd5b50356001600160a01b0316610592565b6102c2600480360361010081101561027f57600080fd5b506001600160a01b038135811691602081013590911690604081013590606081013590608081013515159060ff60a0820135169060c08101359060e001356105a4565b005b6102c2600480360360408110156102da57600080fd5b50803590602001356001600160a01b0316610867565b6100f7610887565b6101986004803603604081101561030e57600080fd5b506001600160a01b0381351690602001356108e2565b60018054604080516020600284861615610100026000190190941693909304601f810184900484028201840190925281815292918301828280156103a95780601f1061037e576101008083540402835291602001916103a9565b820191906000526020600020905b81548152906001019060200180831161038c57829003601f168201915b505050505081565b3360009081526006602090815260408083206001600160a01b0386168452909152902081905560015b92915050565b6001600160a01b038316600090815260056020526040812054821180159061042b57506001600160a01b03841660009081526006602090815260408083203384529091529020548211155b80156104375750600082115b1561048957506001600160a01b0380831660009081526005602090815260408083208054860190559286168252828220805485900390556006815282822033835290522080548290039055600161048d565b5060005b9392505050565b7fea2aa0a1be11a07ed86d755c93467f4f82362b452371d1ba94d1715123511acb81565b60045481565b60075481565b6002805460408051602060018416156101000260001901909316849004601f810184900484028201840190925281815292918301828280156103a95780601f1061037e576101008083540402835291602001916103a9565b6001600160a01b031660009081526005602052604090205490565b6003805460408051602060026001851615610100026000190190941693909304601f810184900484028201840190925281815292918301828280156103a95780601f1061037e576101008083540402835291602001916103a9565b60086020526000908152604090205481565b600754604080517fea2aa0a1be11a07ed86d755c93467f4f82362b452371d1ba94d1715123511acb6020808301919091526001600160a01b03808d16838501819052908c166060840152608083018b905260a083018a905288151560c0808501919091528451808503909101815260e08401855280519083012061190160f01b610100850152610102840195909552610122808401959095528351808403909501855261014290920190925282519290910191909120906106a4576040805162461bcd60e51b815260206004820152601560248201527404461692f696e76616c69642d616464726573732d3605c1b604482015290519081900360640190fd5b60018185858560405160008152602001604052604051808581526020018460ff1681526020018381526020018281526020019450505050506020604051602081039080840390855afa1580156106fe573d6000803e3d6000fd5b505050602060405103516001600160a01b0316896001600160a01b031614610762576040805162461bcd60e51b815260206004820152601260248201527111185a4bda5b9d985b1a590b5c195c9b5a5d60721b604482015290519081900360640190fd5b85158061076f5750854211155b6107b5576040805162461bcd60e51b815260206004820152601260248201527111185a4bdc195c9b5a5d0b595e1c1a5c995960721b604482015290519081900360640190fd5b6001600160a01b0389166000908152600860205260409020805460018101909155871461081d576040805162461bcd60e51b81526020600482015260116024820152704461692f696e76616c69642d6e6f6e636560781b604482015290519081900360640190fd5b60008561082b57600061082f565b6000195b6001600160a01b039a8b1660009081526006602090815260408083209c909d1682529a909a5299909820989098555050505050505050565b6001600160a01b0316600090815260056020526040902080549091019055565b6000805460408051602060026001851615610100026000190190941693909304601f810184900484028201840190925281815292918301828280156103a95780601f1061037e576101008083540402835291602001916103a9565b3360009081526005602052604081205482118015906109015750600082115b15610939575033600090815260056020526040808220805484900390556001600160a01b0384168252902080548201905560016103da565b5060006103da56fea26469706673582212208448fdeb3164ae3923d0f24fec13233b47e76642b27b72a39ee278b44b91c2cd64736f6c63430007060033",
  "linkReferences": {},
  "deployedLinkReferences": {}
}