{
  "_format": "hh-sol-artifact-1",
  "contractName": "RelayRecipient",
  "sourceName": "contracts/RelayRecipient.sol",
  "abi": [
    {
      "inputs": [
        {
          "internalType": "address",
          "name": "forwarder",
          "type": "address"
        }
      ],
      "stateMutability": "nonpayable",
      "type": "constructor"
    },
    {
      "inputs": [
        {
          "internalType": "address",
          "name": "forwarder",
          "type": "address"
        }
      ],
      "name": "isTrustedForwarder",
      "outputs": [
        {
          "internalType": "bool",
          "name": "",
          "type": "bool"
        }
      ],
      "stateMutability": "view",
      "type": "function"
    },
    {
      "inputs": [
        {
          "internalType": "address",
          "name": "tokenAddress",
          "type": "address"
        },
        {
          "internalType": "uint256",
          "name": "value",
          "type": "uint256"
        }
      ],
      "name": "mintToken",
      "outputs": [],
      "stateMutability": "nonpayable",
      "type": "function"
    },
    {
      "inputs": [
        {
          "internalType": "address",
          "name": "tokenAddress",
          "type": "address"
        },
        {
          "internalType": "uint256",
          "name": "value",
          "type": "uint256"
        },
        {
          "internalType": "address",
          "name": "destinationAddress",
          "type": "address"
        },
        {
          "internalType": "address",
          "name": "owner",
          "type": "address"
        },
        {
          "internalType": "address",
          "name": "spender",
          "type": "address"
        },
        {
          "internalType": "uint256",
          "name": "amount",
          "type": "uint256"
        },
        {
          "internalType": "uint256",
          "name": "deadline",
          "type": "uint256"
        },
        {
          "internalType": "uint256",
          "name": "nonce",
          "type": "uint256"
        },
        {
          "internalType": "bool",
          "name": "allowed",
          "type": "bool"
        },
        {
          "internalType": "uint8",
          "name": "v",
          "type": "uint8"
        },
        {
          "internalType": "bytes32",
          "name": "r",
          "type": "bytes32"
        },
        {
          "internalType": "bytes32",
          "name": "s",
          "type": "bytes32"
        }
      ],
      "name": "permitAndTransfer",
      "outputs": [],
      "stateMutability": "nonpayable",
      "type": "function"
    },
    {
      "inputs": [],
      "name": "trustedForwarder",
      "outputs": [
        {
          "internalType": "address",
          "name": "",
          "type": "address"
        }
      ],
      "stateMutability": "view",
      "type": "function"
    },
    {
      "inputs": [],
      "name": "versionRecipient",
      "outputs": [
        {
          "internalType": "string",
          "name": "",
          "type": "string"
        }
      ],
      "stateMutability": "view",
      "type": "function"
    }
  ],
  "bytecode": "0x608060405234801561001057600080fd5b506040516104e63803806104e68339818101604052602081101561003357600080fd5b5051600080546001600160a01b039092166001600160a01b0319909216919091179055610481806100656000396000f3fe608060405234801561001057600080fd5b50600436106100575760003560e01c8063486ff0cd1461005c578063572b6c05146100d957806379c65068146101135780637da0a8771461014157806397f83f8114610165575b600080fd5b6100646101dd565b6040805160208082528351818301528351919283929083019185019080838360005b8381101561009e578181015183820152602001610086565b50505050905090810190601f1680156100cb5780820380516001836020036101000a031916815260200191505b509250505060405180910390f35b6100ff600480360360208110156100ef57600080fd5b50356001600160a01b03166101fd565b604080519115158252519081900360200190f35b61013f6004803603604081101561012957600080fd5b506001600160a01b038135169060200135610211565b005b61014961028d565b604080516001600160a01b039092168252519081900360200190f35b61013f600480360361018081101561017c57600080fd5b506001600160a01b038135811691602081013591604082013581169160608101358216916080820135169060a08101359060c08101359060e08101359061010081013515159060ff610120820135169061014081013590610160013561029c565b604080518082019091526005815264191719171960d91b60208201525b90565b6000546001600160a01b0390811691161490565b816001600160a01b0381166340c10f19610229610419565b846040518363ffffffff1660e01b815260040180836001600160a01b0316815260200182815260200192505050600060405180830381600087803b15801561027057600080fd5b505af1158015610284573d6000803e3d6000fd5b50505050505050565b6000546001600160a01b031681565b6040805163d505accf60e01b81526001600160a01b038b811660048301528a81166024830152604482018a90526064820189905260ff8616608483015260a4820185905260c4820184905291518e9283169163d505accf9160e480830192600092919082900301818387803b15801561031457600080fd5b505af1158015610328573d6000803e3d6000fd5b50505050806001600160a01b03166323b872dd610343610419565b8d8f6040518463ffffffff1660e01b815260040180846001600160a01b03168152602001836001600160a01b031681526020018281526020019350505050602060405180830381600087803b15801561039b57600080fd5b505af11580156103af573d6000803e3d6000fd5b505050506040513d60208110156103c557600080fd5b505161040a576040805162461bcd60e51b815260206004820152600f60248201526e151c985b9cd9995c8819985a5b1959608a1b604482015290519081900360640190fd5b50505050505050505050505050565b6000601436108015906104305750610430336101fd565b15610444575060131936013560601c6101fa565b50336101fa56fea264697066735822122097039564ab37b437f3edf7e94e7c61a4802438a3d58fc4f2c9ec8b3719d373b664736f6c63430007060033",
  "linkReferences": {},
  "deployedLinkReferences": {}
}