{
  "_format": "hh-sol-artifact-1",
  "contractName": "RelayRecipient",
  "sourceName": "contracts/RelayRecipient.sol",
  "abi": [
    {
      "inputs": [
        {
          "internalType": "address",
          "name": "forwarder",
          "type": "address"
        }
      ],
      "stateMutability": "nonpayable",
      "type": "constructor"
    },
    {
      "inputs": [
        {
          "internalType": "address",
          "name": "tokenAddress",
          "type": "address"
        },
        {
          "internalType": "uint256",
          "name": "value",
          "type": "uint256"
        }
      ],
      "name": "approveTransfer",
      "outputs": [
        {
          "internalType": "bool",
          "name": "result",
          "type": "bool"
        }
      ],
      "stateMutability": "nonpayable",
      "type": "function"
    },
    {
      "inputs": [
        {
          "internalType": "address",
          "name": "forwarder",
          "type": "address"
        }
      ],
      "name": "isTrustedForwarder",
      "outputs": [
        {
          "internalType": "bool",
          "name": "",
          "type": "bool"
        }
      ],
      "stateMutability": "view",
      "type": "function"
    },
    {
      "inputs": [
        {
          "internalType": "address",
          "name": "tokenAddress",
          "type": "address"
        },
        {
          "internalType": "uint256",
          "name": "value",
          "type": "uint256"
        }
      ],
      "name": "mintToken",
      "outputs": [],
      "stateMutability": "nonpayable",
      "type": "function"
    },
    {
      "inputs": [
        {
          "internalType": "address",
          "name": "tokenAddress",
          "type": "address"
        },
        {
          "internalType": "address",
          "name": "owner",
          "type": "address"
        },
        {
          "internalType": "address",
          "name": "spender",
          "type": "address"
        },
        {
          "internalType": "uint256",
          "name": "amount",
          "type": "uint256"
        },
        {
          "internalType": "uint256",
          "name": "deadline",
          "type": "uint256"
        },
        {
          "internalType": "uint256",
          "name": "nonce",
          "type": "uint256"
        },
        {
          "internalType": "bool",
          "name": "allowed",
          "type": "bool"
        },
        {
          "internalType": "uint8",
          "name": "v",
          "type": "uint8"
        },
        {
          "internalType": "bytes32",
          "name": "r",
          "type": "bytes32"
        },
        {
          "internalType": "bytes32",
          "name": "s",
          "type": "bytes32"
        }
      ],
      "name": "permit",
      "outputs": [],
      "stateMutability": "nonpayable",
      "type": "function"
    },
    {
      "inputs": [
        {
          "internalType": "address",
          "name": "tokenAddress",
          "type": "address"
        },
        {
          "internalType": "address",
          "name": "destinationAddress",
          "type": "address"
        },
        {
          "internalType": "uint256",
          "name": "value",
          "type": "uint256"
        }
      ],
      "name": "transferToken",
      "outputs": [],
      "stateMutability": "nonpayable",
      "type": "function"
    },
    {
      "inputs": [],
      "name": "trustedForwarder",
      "outputs": [
        {
          "internalType": "address",
          "name": "",
          "type": "address"
        }
      ],
      "stateMutability": "view",
      "type": "function"
    },
    {
      "inputs": [],
      "name": "versionRecipient",
      "outputs": [
        {
          "internalType": "string",
          "name": "",
          "type": "string"
        }
      ],
      "stateMutability": "view",
      "type": "function"
    }
  ],
  "bytecode": "0x608060405234801561001057600080fd5b506040516105ee3803806105ee8339818101604052602081101561003357600080fd5b5051600080546001600160a01b039092166001600160a01b0319909216919091179055610589806100656000396000f3fe608060405234801561001057600080fd5b506004361061007d5760003560e01c80637da0a8771161005b5780637da0a87714610167578063a9ead7c01461018b578063f5537ede146101f3578063fa02c4b7146102295761007d565b8063486ff0cd14610082578063572b6c05146100ff57806379c6506814610139575b600080fd5b61008a610255565b6040805160208082528351818301528351919283929083019185019080838360005b838110156100c45781810151838201526020016100ac565b50505050905090810190601f1680156100f15780820380516001836020036101000a031916815260200191505b509250505060405180910390f35b6101256004803603602081101561011557600080fd5b50356001600160a01b0316610275565b604080519115158252519081900360200190f35b6101656004803603604081101561014f57600080fd5b506001600160a01b038135169060200135610289565b005b61016f610305565b604080516001600160a01b039092168252519081900360200190f35b61016560048036036101408110156101a257600080fd5b506001600160a01b03813581169160208101358216916040820135169060608101359060808101359060a08101359060c081013515159060ff60e08201351690610100810135906101200135610314565b6101656004803603606081101561020957600080fd5b506001600160a01b038135811691602081013590911690604001356103b1565b6101256004803603604081101561023f57600080fd5b506001600160a01b038135169060200135610496565b604080518082019091526005815264191719171960d91b60208201525b90565b6000546001600160a01b0390811691161490565b816001600160a01b0381166340c10f196102a1610521565b846040518363ffffffff1660e01b815260040180836001600160a01b0316815260200182815260200192505050600060405180830381600087803b1580156102e857600080fd5b505af11580156102fc573d6000803e3d6000fd5b50505050505050565b6000546001600160a01b031681565b6040805163d505accf60e01b81526001600160a01b038b811660048301528a81166024830152604482018a90526064820189905260ff8616608483015260a4820185905260c4820184905291518c9283169163d505accf9160e480830192600092919082900301818387803b15801561038c57600080fd5b505af11580156103a0573d6000803e3d6000fd5b505050505050505050505050505050565b826001600160a01b0381166323b872dd6103c9610521565b85856040518463ffffffff1660e01b815260040180846001600160a01b03168152602001836001600160a01b031681526020018281526020019350505050602060405180830381600087803b15801561042157600080fd5b505af1158015610435573d6000803e3d6000fd5b505050506040513d602081101561044b57600080fd5b5051610490576040805162461bcd60e51b815260206004820152600f60248201526e151c985b9cd9995c8819985a5b1959608a1b604482015290519081900360640190fd5b50505050565b6040805163095ea7b360e01b8152306004820152602481018390529051600091849183916001600160a01b0384169163095ea7b39160448082019260209290919082900301818787803b1580156104ec57600080fd5b505af1158015610500573d6000803e3d6000fd5b505050506040513d602081101561051657600080fd5b505195945050505050565b600060143610801590610538575061053833610275565b1561054c575060131936013560601c610272565b503361027256fea2646970667358221220c655f07d237b774f8ca574716c5ae0774fd0af7f10e028f8d44776b9701e283964736f6c63430007060033",
  "linkReferences": {},
  "deployedLinkReferences": {}
}