{
  "_format": "hh-sol-artifact-1",
  "contractName": "MyPaymaster",
  "sourceName": "contracts/MyPaymaster.sol",
  "abi": [
    {
      "anonymous": false,
      "inputs": [
        {
          "indexed": true,
          "internalType": "address",
          "name": "previousOwner",
          "type": "address"
        },
        {
          "indexed": true,
          "internalType": "address",
          "name": "newOwner",
          "type": "address"
        }
      ],
      "name": "OwnershipTransferred",
      "type": "event"
    },
    {
      "inputs": [],
      "name": "CALLDATA_SIZE_LIMIT",
      "outputs": [
        {
          "internalType": "uint256",
          "name": "",
          "type": "uint256"
        }
      ],
      "stateMutability": "view",
      "type": "function"
    },
    {
      "inputs": [],
      "name": "FORWARDER_HUB_OVERHEAD",
      "outputs": [
        {
          "internalType": "uint256",
          "name": "",
          "type": "uint256"
        }
      ],
      "stateMutability": "view",
      "type": "function"
    },
    {
      "inputs": [],
      "name": "PAYMASTER_ACCEPTANCE_BUDGET",
      "outputs": [
        {
          "internalType": "uint256",
          "name": "",
          "type": "uint256"
        }
      ],
      "stateMutability": "view",
      "type": "function"
    },
    {
      "inputs": [],
      "name": "POST_RELAYED_CALL_GAS_LIMIT",
      "outputs": [
        {
          "internalType": "uint256",
          "name": "",
          "type": "uint256"
        }
      ],
      "stateMutability": "view",
      "type": "function"
    },
    {
      "inputs": [],
      "name": "PRE_RELAYED_CALL_GAS_LIMIT",
      "outputs": [
        {
          "internalType": "uint256",
          "name": "",
          "type": "uint256"
        }
      ],
      "stateMutability": "view",
      "type": "function"
    },
    {
      "inputs": [
        {
          "components": [
            {
              "components": [
                {
                  "internalType": "address",
                  "name": "from",
                  "type": "address"
                },
                {
                  "internalType": "address",
                  "name": "to",
                  "type": "address"
                },
                {
                  "internalType": "uint256",
                  "name": "value",
                  "type": "uint256"
                },
                {
                  "internalType": "uint256",
                  "name": "gas",
                  "type": "uint256"
                },
                {
                  "internalType": "uint256",
                  "name": "nonce",
                  "type": "uint256"
                },
                {
                  "internalType": "bytes",
                  "name": "data",
                  "type": "bytes"
                },
                {
                  "internalType": "uint256",
                  "name": "validUntil",
                  "type": "uint256"
                }
              ],
              "internalType": "struct IForwarder.ForwardRequest",
              "name": "request",
              "type": "tuple"
            },
            {
              "components": [
                {
                  "internalType": "uint256",
                  "name": "gasPrice",
                  "type": "uint256"
                },
                {
                  "internalType": "uint256",
                  "name": "pctRelayFee",
                  "type": "uint256"
                },
                {
                  "internalType": "uint256",
                  "name": "baseRelayFee",
                  "type": "uint256"
                },
                {
                  "internalType": "address",
                  "name": "relayWorker",
                  "type": "address"
                },
                {
                  "internalType": "address",
                  "name": "paymaster",
                  "type": "address"
                },
                {
                  "internalType": "address",
                  "name": "forwarder",
                  "type": "address"
                },
                {
                  "internalType": "bytes",
                  "name": "paymasterData",
                  "type": "bytes"
                },
                {
                  "internalType": "uint256",
                  "name": "clientId",
                  "type": "uint256"
                }
              ],
              "internalType": "struct GsnTypes.RelayData",
              "name": "relayData",
              "type": "tuple"
            }
          ],
          "internalType": "struct GsnTypes.RelayRequest",
          "name": "relayRequest",
          "type": "tuple"
        }
      ],
      "name": "_verifyForwarder",
      "outputs": [],
      "stateMutability": "view",
      "type": "function"
    },
    {
      "inputs": [],
      "name": "getGasAndDataLimits",
      "outputs": [
        {
          "components": [
            {
              "internalType": "uint256",
              "name": "acceptanceBudget",
              "type": "uint256"
            },
            {
              "internalType": "uint256",
              "name": "preRelayedCallGasLimit",
              "type": "uint256"
            },
            {
              "internalType": "uint256",
              "name": "postRelayedCallGasLimit",
              "type": "uint256"
            },
            {
              "internalType": "uint256",
              "name": "calldataSizeLimit",
              "type": "uint256"
            }
          ],
          "internalType": "struct IPaymaster.GasAndDataLimits",
          "name": "limits",
          "type": "tuple"
        }
      ],
      "stateMutability": "view",
      "type": "function"
    },
    {
      "inputs": [],
      "name": "getHubAddr",
      "outputs": [
        {
          "internalType": "address",
          "name": "",
          "type": "address"
        }
      ],
      "stateMutability": "view",
      "type": "function"
    },
    {
      "inputs": [],
      "name": "getRelayHubDeposit",
      "outputs": [
        {
          "internalType": "uint256",
          "name": "",
          "type": "uint256"
        }
      ],
      "stateMutability": "view",
      "type": "function"
    },
    {
      "inputs": [],
      "name": "owner",
      "outputs": [
        {
          "internalType": "address",
          "name": "",
          "type": "address"
        }
      ],
      "stateMutability": "view",
      "type": "function"
    },
    {
      "inputs": [
        {
          "internalType": "bytes",
          "name": "context",
          "type": "bytes"
        },
        {
          "internalType": "bool",
          "name": "success",
          "type": "bool"
        },
        {
          "internalType": "uint256",
          "name": "gasUseWithoutPost",
          "type": "uint256"
        },
        {
          "components": [
            {
              "internalType": "uint256",
              "name": "gasPrice",
              "type": "uint256"
            },
            {
              "internalType": "uint256",
              "name": "pctRelayFee",
              "type": "uint256"
            },
            {
              "internalType": "uint256",
              "name": "baseRelayFee",
              "type": "uint256"
            },
            {
              "internalType": "address",
              "name": "relayWorker",
              "type": "address"
            },
            {
              "internalType": "address",
              "name": "paymaster",
              "type": "address"
            },
            {
              "internalType": "address",
              "name": "forwarder",
              "type": "address"
            },
            {
              "internalType": "bytes",
              "name": "paymasterData",
              "type": "bytes"
            },
            {
              "internalType": "uint256",
              "name": "clientId",
              "type": "uint256"
            }
          ],
          "internalType": "struct GsnTypes.RelayData",
          "name": "relayData",
          "type": "tuple"
        }
      ],
      "name": "postRelayedCall",
      "outputs": [],
      "stateMutability": "nonpayable",
      "type": "function"
    },
    {
      "inputs": [
        {
          "components": [
            {
              "components": [
                {
                  "internalType": "address",
                  "name": "from",
                  "type": "address"
                },
                {
                  "internalType": "address",
                  "name": "to",
                  "type": "address"
                },
                {
                  "internalType": "uint256",
                  "name": "value",
                  "type": "uint256"
                },
                {
                  "internalType": "uint256",
                  "name": "gas",
                  "type": "uint256"
                },
                {
                  "internalType": "uint256",
                  "name": "nonce",
                  "type": "uint256"
                },
                {
                  "internalType": "bytes",
                  "name": "data",
                  "type": "bytes"
                },
                {
                  "internalType": "uint256",
                  "name": "validUntil",
                  "type": "uint256"
                }
              ],
              "internalType": "struct IForwarder.ForwardRequest",
              "name": "request",
              "type": "tuple"
            },
            {
              "components": [
                {
                  "internalType": "uint256",
                  "name": "gasPrice",
                  "type": "uint256"
                },
                {
                  "internalType": "uint256",
                  "name": "pctRelayFee",
                  "type": "uint256"
                },
                {
                  "internalType": "uint256",
                  "name": "baseRelayFee",
                  "type": "uint256"
                },
                {
                  "internalType": "address",
                  "name": "relayWorker",
                  "type": "address"
                },
                {
                  "internalType": "address",
                  "name": "paymaster",
                  "type": "address"
                },
                {
                  "internalType": "address",
                  "name": "forwarder",
                  "type": "address"
                },
                {
                  "internalType": "bytes",
                  "name": "paymasterData",
                  "type": "bytes"
                },
                {
                  "internalType": "uint256",
                  "name": "clientId",
                  "type": "uint256"
                }
              ],
              "internalType": "struct GsnTypes.RelayData",
              "name": "relayData",
              "type": "tuple"
            }
          ],
          "internalType": "struct GsnTypes.RelayRequest",
          "name": "relayRequest",
          "type": "tuple"
        },
        {
          "internalType": "bytes",
          "name": "signature",
          "type": "bytes"
        },
        {
          "internalType": "bytes",
          "name": "approvalData",
          "type": "bytes"
        },
        {
          "internalType": "uint256",
          "name": "maxPossibleGas",
          "type": "uint256"
        }
      ],
      "name": "preRelayedCall",
      "outputs": [
        {
          "internalType": "bytes",
          "name": "context",
          "type": "bytes"
        },
        {
          "internalType": "bool",
          "name": "revertOnRecipientRevert",
          "type": "bool"
        }
      ],
      "stateMutability": "nonpayable",
      "type": "function"
    },
    {
      "inputs": [],
      "name": "renounceOwnership",
      "outputs": [],
      "stateMutability": "nonpayable",
      "type": "function"
    },
    {
      "inputs": [
        {
          "internalType": "contract IRelayHub",
          "name": "hub",
          "type": "address"
        }
      ],
      "name": "setRelayHub",
      "outputs": [],
      "stateMutability": "nonpayable",
      "type": "function"
    },
    {
      "inputs": [
        {
          "internalType": "contract IForwarder",
          "name": "forwarder",
          "type": "address"
        }
      ],
      "name": "setTrustedForwarder",
      "outputs": [],
      "stateMutability": "nonpayable",
      "type": "function"
    },
    {
      "inputs": [
        {
          "internalType": "address",
          "name": "newOwner",
          "type": "address"
        }
      ],
      "name": "transferOwnership",
      "outputs": [],
      "stateMutability": "nonpayable",
      "type": "function"
    },
    {
      "inputs": [],
      "name": "trustedForwarder",
      "outputs": [
        {
          "internalType": "contract IForwarder",
          "name": "",
          "type": "address"
        }
      ],
      "stateMutability": "view",
      "type": "function"
    },
    {
      "inputs": [],
      "name": "versionPaymaster",
      "outputs": [
        {
          "internalType": "string",
          "name": "",
          "type": "string"
        }
      ],
      "stateMutability": "view",
      "type": "function"
    },
    {
      "inputs": [
        {
          "internalType": "uint256",
          "name": "amount",
          "type": "uint256"
        },
        {
          "internalType": "address payable",
          "name": "target",
          "type": "address"
        }
      ],
      "name": "withdrawRelayHubDepositTo",
      "outputs": [],
      "stateMutability": "nonpayable",
      "type": "function"
    },
    {
      "stateMutability": "payable",
      "type": "receive"
    }
  ],
  "bytecode": "0x608060405234801561001057600080fd5b50600061001b61006a565b600080546001600160a01b0319166001600160a01b0383169081178255604051929350917f8be0079c531659141344cd1fd0a4f28419497f9722a3daafe3b4186f6b6457e0908290a35061006e565b3390565b610f158061007d6000396000f3fe6080604052600436106101175760003560e01c80638da5cb5b116100a0578063bbdaa3c911610064578063bbdaa3c9146102cd578063da742228146102e2578063df463a6614610302578063f2fde38b14610317578063f9c002f7146103375761011e565b80638da5cb5b1461023f578063921276ea14610254578063a5dcd07b14610276578063b039a88f14610296578063b90b41cf146102b85761011e565b8063715018a6116100e7578063715018a6146101b357806374e861d6146101c857806376fa01c3146101ea5780637bb052641461020a5780637da0a8771461022a5761011e565b8062be5dd4146101235780632afe31c11461015a5780632d14c4b71461017c5780635c5e3db11461019e5761011e565b3661011e57005b600080fd5b34801561012f57600080fd5b5061014361013e366004610b5b565b61034c565b604051610151929190610c97565b60405180910390f35b34801561016657600080fd5b5061016f610367565b6040516101519190610dd3565b34801561018857600080fd5b5061019c610197366004610c0c565b6103ed565b005b3480156101aa57600080fd5b5061016f6104b5565b3480156101bf57600080fd5b5061019c6104bb565b3480156101d457600080fd5b506101dd610567565b6040516101519190610c83565b3480156101f657600080fd5b5061019c610205366004610a94565b610576565b34801561021657600080fd5b5061019c610225366004610a55565b61057d565b34801561023657600080fd5b506101dd610601565b34801561024b57600080fd5b506101dd610610565b34801561026057600080fd5b5061026961061f565b6040516101519190610cbb565b34801561028257600080fd5b5061019c610291366004610b20565b61063f565b3480156102a257600080fd5b506102ab61069f565b6040516101519190610da8565b3480156102c457600080fd5b5061016f6106d7565b3480156102d957600080fd5b5061016f6106dd565b3480156102ee57600080fd5b5061019c6102fd366004610a55565b6106e4565b34801561030e57600080fd5b5061016f610768565b34801561032357600080fd5b5061019c610332366004610a55565b61076f565b34801561034357600080fd5b5061016f610871565b60408051602081019091526000808252965096945050505050565b6001546040516370a0823160e01b81526000916001600160a01b0316906370a0823190610398903090600401610c83565b60206040518083038186803b1580156103b057600080fd5b505afa1580156103c4573d6000803e3d6000fd5b505050506040513d601f19601f820116820180604052508101906103e89190610bf4565b905090565b6103f5610878565b6001600160a01b0316610406610610565b6001600160a01b03161461044f576040805162461bcd60e51b81526020600482018190526024820152600080516020610ec0833981519152604482015290519081900360640190fd5b600154604051627b8a6760e11b81526001600160a01b039091169062f714ce9061047f9085908590600401610ddc565b600060405180830381600087803b15801561049957600080fd5b505af11580156104ad573d6000803e3d6000fd5b505050505050565b61290481565b6104c3610878565b6001600160a01b03166104d4610610565b6001600160a01b03161461051d576040805162461bcd60e51b81526020600482018190526024820152600080516020610ec0833981519152604482015290519081900360640190fd5b600080546040516001600160a01b03909116907f8be0079c531659141344cd1fd0a4f28419497f9722a3daafe3b4186f6b6457e0908390a3600080546001600160a01b0319169055565b6001546001600160a01b031690565b5050505050565b610585610878565b6001600160a01b0316610596610610565b6001600160a01b0316146105df576040805162461bcd60e51b81526020600482018190526024820152600080516020610ec0833981519152604482015290519081900360640190fd5b600180546001600160a01b0319166001600160a01b0392909216919091179055565b6002546001600160a01b031681565b6000546001600160a01b031690565b6060604051806060016040528060298152602001610e7160299139905090565b61064c6020820182610e08565b61065d9060c081019060a001610a55565b6002546001600160a01b039081169116146106935760405162461bcd60e51b815260040161068a90610d3c565b60405180910390fd5b61069c8161087c565b50565b6106a76109cf565b5060408051608081018252620249f08152620186a060208201526201adb091810191909152612904606082015290565b61c35081565b6201adb081565b6106ec610878565b6001600160a01b03166106fd610610565b6001600160a01b031614610746576040805162461bcd60e51b81526020600482018190526024820152600080516020610ec0833981519152604482015290519081900360640190fd5b600280546001600160a01b0319166001600160a01b0392909216919091179055565b620249f081565b610777610878565b6001600160a01b0316610788610610565b6001600160a01b0316146107d1576040805162461bcd60e51b81526020600482018190526024820152600080516020610ec0833981519152604482015290519081900360640190fd5b6001600160a01b0381166108165760405162461bcd60e51b8152600401808060200182810382526026815260200180610e9a6026913960400191505060405180910390fd5b600080546040516001600160a01b03808516939216917f8be0079c531659141344cd1fd0a4f28419497f9722a3daafe3b4186f6b6457e091a3600080546001600160a01b0319166001600160a01b0392909216919091179055565b620186a081565b3390565b6000806108898380610df3565b61089a906040810190602001610a55565b6001600160a01b031663572b6c0560e01b6108b86020860186610e08565b6108c99060c081019060a001610a55565b6040516024016108d99190610c83565b60408051601f198184030181529181526020820180516001600160e01b03166001600160e01b03199094169390931790925290516109179190610c67565b600060405180830381855afa9150503d8060008114610952576040519150601f19603f3d011682016040523d82523d6000602084013e610957565b606091505b5091509150816109795760405162461bcd60e51b815260040161068a90610d05565b805160201461099a5760405162461bcd60e51b815260040161068a90610d73565b808060200190518101906109ae9190610a78565b6109ca5760405162461bcd60e51b815260040161068a90610cce565b505050565b6040518060800160405280600081526020016000815260200160008152602001600081525090565b60008083601f840112610a08578182fd5b50813567ffffffffffffffff811115610a1f578182fd5b602083019150836020828501011115610a3757600080fd5b9250929050565b600060408284031215610a4f578081fd5b50919050565b600060208284031215610a66578081fd5b8135610a7181610e4d565b9392505050565b600060208284031215610a89578081fd5b8151610a7181610e62565b600080600080600060808688031215610aab578081fd5b853567ffffffffffffffff80821115610ac2578283fd5b610ace89838a016109f7565b909750955060208801359150610ae382610e62565b9093506040870135925060608701359080821115610aff578283fd5b5086016101008189031215610b12578182fd5b809150509295509295909350565b600060208284031215610b31578081fd5b813567ffffffffffffffff811115610b47578182fd5b610b5384828501610a3e565b949350505050565b60008060008060008060808789031215610b73578081fd5b863567ffffffffffffffff80821115610b8a578283fd5b610b968a838b01610a3e565b97506020890135915080821115610bab578283fd5b610bb78a838b016109f7565b90975095506040890135915080821115610bcf578283fd5b50610bdc89828a016109f7565b979a9699509497949695606090950135949350505050565b600060208284031215610c05578081fd5b5051919050565b60008060408385031215610c1e578182fd5b823591506020830135610c3081610e4d565b809150509250929050565b60008151808452610c53816020860160208601610e1d565b601f01601f19169290920160200192915050565b60008251610c79818460208701610e1d565b9190910192915050565b6001600160a01b0391909116815260200190565b600060408252610caa6040830185610c3b565b905082151560208301529392505050565b600060208252610a716020830184610c3b565b6020808252601f908201527f696e76616c696420666f7277617264657220666f7220726563697069656e7400604082015260600190565b6020808252601c908201527f697354727573746564466f727761726465723a20726576657274656400000000604082015260600190565b60208082526018908201527f466f72776172646572206973206e6f7420747275737465640000000000000000604082015260600190565b6020808252818101527f697354727573746564466f727761726465723a2062616420726573706f6e7365604082015260600190565b8151815260208083015190820152604080830151908201526060918201519181019190915260800190565b90815260200190565b9182526001600160a01b0316602082015260400190565b6000823560de19833603018112610c79578182fd5b6000823560fe19833603018112610c79578182fd5b60005b83811015610e38578181015183820152602001610e20565b83811115610e47576000848401525b50505050565b6001600160a01b038116811461069c57600080fd5b801515811461069c57600080fdfe322e322e302b6f70656e67736e2e61636365707465766572797468696e672e697061796d61737465724f776e61626c653a206e6577206f776e657220697320746865207a65726f20616464726573734f776e61626c653a2063616c6c6572206973206e6f7420746865206f776e6572a26469706673582212204ab7104b2b6ff45703f5c9e8fb06d7fd7769fbde74209bd7211c23a6f0a3597064736f6c63430007060033",
  "linkReferences": {},
  "deployedLinkReferences": {}
}