{
  "_format": "hh-sol-artifact-1",
  "contractName": "GsnEip712Library",
  "sourceName": "@opengsn/gsn/contracts/utils/GsnEip712Library.sol",
  "abi": [
    {
      "inputs": [],
      "name": "EIP712DOMAIN_TYPEHASH",
      "outputs": [
        {
          "internalType": "bytes32",
          "name": "",
          "type": "bytes32"
        }
      ],
      "stateMutability": "view",
      "type": "function"
    },
    {
      "inputs": [],
      "name": "GENERIC_PARAMS",
      "outputs": [
        {
          "internalType": "string",
          "name": "",
          "type": "string"
        }
      ],
      "stateMutability": "view",
      "type": "function"
    },
    {
      "inputs": [],
      "name": "RELAYDATA_TYPE",
      "outputs": [
        {
          "internalType": "bytes",
          "name": "",
          "type": "bytes"
        }
      ],
      "stateMutability": "view",
      "type": "function"
    },
    {
      "inputs": [],
      "name": "RELAYDATA_TYPEHASH",
      "outputs": [
        {
          "internalType": "bytes32",
          "name": "",
          "type": "bytes32"
        }
      ],
      "stateMutability": "view",
      "type": "function"
    },
    {
      "inputs": [],
      "name": "RELAY_REQUEST_NAME",
      "outputs": [
        {
          "internalType": "string",
          "name": "",
          "type": "string"
        }
      ],
      "stateMutability": "view",
      "type": "function"
    },
    {
      "inputs": [],
      "name": "RELAY_REQUEST_SUFFIX",
      "outputs": [
        {
          "internalType": "string",
          "name": "",
          "type": "string"
        }
      ],
      "stateMutability": "view",
      "type": "function"
    },
    {
      "inputs": [],
      "name": "RELAY_REQUEST_TYPE",
      "outputs": [
        {
          "internalType": "bytes",
          "name": "",
          "type": "bytes"
        }
      ],
      "stateMutability": "view",
      "type": "function"
    },
    {
      "inputs": [],
      "name": "RELAY_REQUEST_TYPEHASH",
      "outputs": [
        {
          "internalType": "bytes32",
          "name": "",
          "type": "bytes32"
        }
      ],
      "stateMutability": "view",
      "type": "function"
    }
  ],
  "bytecode": "0x61054f610026600b82828239805160001a60731461001957fe5b30600052607381538281f3fe73000000000000000000000000000000000000000030146080604052600436106100925760003560e01c8063abf0d3f411610065578063abf0d3f4146100cd578063c46cf83f146100e2578063c49f91d3146100ea578063cc0c62b2146100f257610092565b8063066a310c146100975780636225e61b146100b5578063931cd38f146100bd578063987673f7146100c5575b600080fd5b61009f6100fa565b6040516100ac91906103d1565b60405180910390f35b61009f610116565b61009f6101ae565b61009f6101d7565b6100d56101ff565b6040516100ac91906103c8565b61009f61029e565b6100d56102ba565b6100d56102de565b6040518060800160405280605d815260200161041c605d913981565b6040518060400160405280600c81526020016b14995b185e54995c5d595cdd60a21b8152506040518060800160405280605d815260200161041c605d91396040518060e0016040528060a1815260200161047960a1913960405160200161017d919061038c565b60408051601f198184030181529082905261019c93929160200161032d565b60405160208183030381529060405281565b6040518060e0016040528060a1815260200161047960a1913960405160200161019c919061038c565b6040518060400160405280600c81526020016b14995b185e54995c5d595cdd60a21b81525081565b6040518060400160405280600c81526020016b14995b185e54995c5d595cdd60a21b8152506040518060800160405280605d815260200161041c605d91396040518060e0016040528060a1815260200161047960a19139604051602001610266919061038c565b60408051601f198184030181529082905261028593929160200161032d565b6040516020818303038152906040528051906020012081565b6040518060e0016040528060a1815260200161047960a1913981565b7f8b73c3c69bb8fe3d512ecc4cf759cc79239f7b179b0ffacaa9a75d522b39400f81565b6040518060e0016040528060a1815260200161047960a191398051906020012081565b600081518084526103198160208601602086016103eb565b601f01601f19169290920160200192915050565b6000845161033f8184602089016103eb565b600560fb1b908301908152845161035d8160018401602089016103eb565b600b60fa1b60019290910191820152835161037f8160028401602088016103eb565b0160020195945050505050565b60007352656c6179446174612072656c6179446174612960601b825282516103bb8160148501602087016103eb565b9190910160140192915050565b90815260200190565b6000602082526103e46020830184610301565b9392505050565b60005b838110156104065781810151838201526020016103ee565b83811115610415576000848401525b5050505056fe616464726573732066726f6d2c6164647265737320746f2c75696e743235362076616c75652c75696e74323536206761732c75696e74323536206e6f6e63652c627974657320646174612c75696e743235362076616c6964556e74696c52656c6179446174612875696e743235362067617350726963652c75696e743235362070637452656c61794665652c75696e74323536206261736552656c61794665652c616464726573732072656c6179576f726b65722c61646472657373207061796d61737465722c6164647265737320666f727761726465722c6279746573207061796d6173746572446174612c75696e7432353620636c69656e74496429a264697066735822122039f70c001bff636876d413b1fef7f82943bf998fbf43c876b78e9dabf03bb48164736f6c63430007060033",
  "linkReferences": {},
  "deployedLinkReferences": {}
}