{
  "_format": "hh-sol-artifact-1",
  "contractName": "FreeCoin",
  "sourceName": "contracts/FreeCoin.sol",
  "abi": [
    {
      "inputs": [
        {
          "internalType": "uint256",
          "name": "chainId_",
          "type": "uint256"
        }
      ],
      "stateMutability": "nonpayable",
      "type": "constructor"
    },
    {
      "inputs": [],
      "name": "DOMAIN_SEPARATOR",
      "outputs": [
        {
          "internalType": "bytes32",
          "name": "",
          "type": "bytes32"
        }
      ],
      "stateMutability": "view",
      "type": "function"
    },
    {
      "inputs": [],
      "name": "PERMIT_TYPEHASH",
      "outputs": [
        {
          "internalType": "bytes32",
          "name": "",
          "type": "bytes32"
        }
      ],
      "stateMutability": "view",
      "type": "function"
    },
    {
      "inputs": [
        {
          "internalType": "address",
          "name": "_spender",
          "type": "address"
        },
        {
          "internalType": "uint256",
          "name": "_value",
          "type": "uint256"
        }
      ],
      "name": "approve",
      "outputs": [
        {
          "internalType": "bool",
          "name": "success",
          "type": "bool"
        }
      ],
      "stateMutability": "nonpayable",
      "type": "function"
    },
    {
      "inputs": [
        {
          "internalType": "address",
          "name": "_owner",
          "type": "address"
        }
      ],
      "name": "balanceOf",
      "outputs": [
        {
          "internalType": "uint256",
          "name": "balance",
          "type": "uint256"
        }
      ],
      "stateMutability": "view",
      "type": "function"
    },
    {
      "inputs": [],
      "name": "decimals",
      "outputs": [
        {
          "internalType": "uint256",
          "name": "",
          "type": "uint256"
        }
      ],
      "stateMutability": "view",
      "type": "function"
    },
    {
      "inputs": [
        {
          "internalType": "uint256",
          "name": "amount",
          "type": "uint256"
        },
        {
          "internalType": "address",
          "name": "receiver",
          "type": "address"
        }
      ],
      "name": "mint",
      "outputs": [],
      "stateMutability": "nonpayable",
      "type": "function"
    },
    {
      "inputs": [],
      "name": "name",
      "outputs": [
        {
          "internalType": "string",
          "name": "",
          "type": "string"
        }
      ],
      "stateMutability": "view",
      "type": "function"
    },
    {
      "inputs": [
        {
          "internalType": "address",
          "name": "",
          "type": "address"
        }
      ],
      "name": "nonces",
      "outputs": [
        {
          "internalType": "uint256",
          "name": "",
          "type": "uint256"
        }
      ],
      "stateMutability": "view",
      "type": "function"
    },
    {
      "inputs": [
        {
          "internalType": "address",
          "name": "holder",
          "type": "address"
        },
        {
          "internalType": "address",
          "name": "spender",
          "type": "address"
        },
        {
          "internalType": "uint256",
          "name": "nonce",
          "type": "uint256"
        },
        {
          "internalType": "uint256",
          "name": "expiry",
          "type": "uint256"
        },
        {
          "internalType": "bool",
          "name": "allowed",
          "type": "bool"
        },
        {
          "internalType": "uint8",
          "name": "v",
          "type": "uint8"
        },
        {
          "internalType": "bytes32",
          "name": "r",
          "type": "bytes32"
        },
        {
          "internalType": "bytes32",
          "name": "s",
          "type": "bytes32"
        }
      ],
      "name": "permit",
      "outputs": [],
      "stateMutability": "nonpayable",
      "type": "function"
    },
    {
      "inputs": [],
      "name": "symbol",
      "outputs": [
        {
          "internalType": "string",
          "name": "",
          "type": "string"
        }
      ],
      "stateMutability": "view",
      "type": "function"
    },
    {
      "inputs": [
        {
          "internalType": "address",
          "name": "_to",
          "type": "address"
        },
        {
          "internalType": "uint256",
          "name": "_value",
          "type": "uint256"
        }
      ],
      "name": "transfer",
      "outputs": [
        {
          "internalType": "bool",
          "name": "success",
          "type": "bool"
        }
      ],
      "stateMutability": "nonpayable",
      "type": "function"
    },
    {
      "inputs": [
        {
          "internalType": "address",
          "name": "_from",
          "type": "address"
        },
        {
          "internalType": "address",
          "name": "_to",
          "type": "address"
        },
        {
          "internalType": "uint256",
          "name": "_value",
          "type": "uint256"
        }
      ],
      "name": "transferFrom",
      "outputs": [
        {
          "internalType": "bool",
          "name": "success",
          "type": "bool"
        }
      ],
      "stateMutability": "nonpayable",
      "type": "function"
    },
    {
      "inputs": [],
      "name": "version",
      "outputs": [
        {
          "internalType": "string",
          "name": "",
          "type": "string"
        }
      ],
      "stateMutability": "view",
      "type": "function"
    }
  ],
  "bytecode": "0x60c0604052600360808190526244414960e81b60a090815261002491600091906101ff565b5060408051808201909152600e8082526d2230b49029ba30b13632b1b7b4b760911b602090920191825261005a916001916101ff565b50604080518082019091526001808252603160f81b6020909201918252610083916002916101ff565b50601260035534801561009557600080fd5b5060405162000ba938038062000ba9833981810160405260208110156100ba57600080fd5b5051604051600180547f8b73c3c69bb8fe3d512ecc4cf759cc79239f7b179b0ffacaa9a75d522b39400f929081908390600260001961010083851615020190911604801561013f5780601f1061011d57610100808354040283529182019161013f565b820191906000526020600020905b81548152906001019060200180831161012b575b50509150506040518091039020600260405180828054600181600116156101000203166002900480156101a95780601f106101875761010080835404028352918201916101a9565b820191906000526020600020905b815481529060010190602001808311610195575b505060408051918290038220602080840197909752828201959095526060820194909452608081019590955250503060a0808501919091528151808503909101815260c0909301905281519101206006556102a0565b828054600181600116156101000203166002900490600052602060002090601f016020900481019282610235576000855561027b565b82601f1061024e57805160ff191683800117855561027b565b8280016001018555821561027b579182015b8281111561027b578251825591602001919060010190610260565b5061028792915061028b565b5090565b5b80821115610287576000815560010161028c565b6108f980620002b06000396000f3fe608060405234801561001057600080fd5b50600436106100cf5760003560e01c806354fd4d501161008c5780638fcbaf0c116100665780638fcbaf0c1461024557806394bf804d146102a157806395d89b41146102cd578063a9059cbb146102d5576100cf565b806354fd4d50146101f157806370a08231146101f95780637ecebe001461021f576100cf565b806306fdde03146100d4578063095ea7b31461015157806323b872dd1461019157806330adf81f146101c7578063313ce567146101e15780633644e515146101e9575b600080fd5b6100dc610301565b6040805160208082528351818301528351919283929083019185019080838360005b838110156101165781810151838201526020016100fe565b50505050905090810190601f1680156101435780820380516001836020036101000a031916815260200191505b509250505060405180910390f35b61017d6004803603604081101561016757600080fd5b506001600160a01b03813516906020013561038e565b604080519115158252519081900360200190f35b61017d600480360360608110156101a757600080fd5b506001600160a01b038135811691602081013590911690604001356103bd565b6101cf610471565b60408051918252519081900360200190f35b6101cf610495565b6101cf61049b565b6100dc6104a1565b6101cf6004803603602081101561020f57600080fd5b50356001600160a01b03166104f9565b6101cf6004803603602081101561023557600080fd5b50356001600160a01b0316610514565b61029f600480360361010081101561025c57600080fd5b506001600160a01b038135811691602081013590911690604081013590606081013590608081013515159060ff60a0820135169060c08101359060e00135610526565b005b61029f600480360360408110156102b757600080fd5b50803590602001356001600160a01b03166107e9565b6100dc610809565b61017d600480360360408110156102eb57600080fd5b506001600160a01b038135169060200135610864565b60018054604080516020600284861615610100026000190190941693909304601f810184900484028201840190925281815292918301828280156103865780601f1061035b57610100808354040283529160200191610386565b820191906000526020600020905b81548152906001019060200180831161036957829003601f168201915b505050505081565b3360009081526005602090815260408083206001600160a01b0386168452909152902081905560015b92915050565b6001600160a01b038316600090815260046020526040812054821180159061040857506001600160a01b03841660009081526005602090815260408083203384529091529020548211155b80156104145750600082115b1561046657506001600160a01b0380831660009081526004602090815260408083208054860190559286168252828220805485900390556005815282822033835290522080548290039055600161046a565b5060005b9392505050565b7fea2aa0a1be11a07ed86d755c93467f4f82362b452371d1ba94d1715123511acb81565b60035481565b60065481565b6002805460408051602060018416156101000260001901909316849004601f810184900484028201840190925281815292918301828280156103865780601f1061035b57610100808354040283529160200191610386565b6001600160a01b031660009081526004602052604090205490565b60076020526000908152604090205481565b600654604080517fea2aa0a1be11a07ed86d755c93467f4f82362b452371d1ba94d1715123511acb6020808301919091526001600160a01b03808d16838501819052908c166060840152608083018b905260a083018a905288151560c0808501919091528451808503909101815260e08401855280519083012061190160f01b61010085015261010284019590955261012280840195909552835180840390950185526101429092019092528251929091019190912090610626576040805162461bcd60e51b815260206004820152601560248201527404461692f696e76616c69642d616464726573732d3605c1b604482015290519081900360640190fd5b60018185858560405160008152602001604052604051808581526020018460ff1681526020018381526020018281526020019450505050506020604051602081039080840390855afa158015610680573d6000803e3d6000fd5b505050602060405103516001600160a01b0316896001600160a01b0316146106e4576040805162461bcd60e51b815260206004820152601260248201527111185a4bda5b9d985b1a590b5c195c9b5a5d60721b604482015290519081900360640190fd5b8515806106f15750854211155b610737576040805162461bcd60e51b815260206004820152601260248201527111185a4bdc195c9b5a5d0b595e1c1a5c995960721b604482015290519081900360640190fd5b6001600160a01b0389166000908152600760205260409020805460018101909155871461079f576040805162461bcd60e51b81526020600482015260116024820152704461692f696e76616c69642d6e6f6e636560781b604482015290519081900360640190fd5b6000856107ad5760006107b1565b6000195b6001600160a01b039a8b1660009081526005602090815260408083209c909d1682529a909a5299909820989098555050505050505050565b6001600160a01b0316600090815260046020526040902080549091019055565b6000805460408051602060026001851615610100026000190190941693909304601f810184900484028201840190925281815292918301828280156103865780601f1061035b57610100808354040283529160200191610386565b3360009081526004602052604081205482118015906108835750600082115b156108bb575033600090815260046020526040808220805484900390556001600160a01b0384168252902080548201905560016103b7565b5060006103b756fea26469706673582212209ffe829697458619cd19190426f8b4f5c67049af28fff943a31e8b5f530fddd264736f6c63430007060033",
  "linkReferences": {},
  "deployedLinkReferences": {}
}